{
  "_format": "hh-sol-artifact-1",
  "contractName": "InvestorNFT",
  "sourceName": "contracts/InvestorNFT.sol",
  "abi": [
    {
      "inputs": [
        {
          "internalType": "string",
          "name": "tokenName",
          "type": "string"
        },
        {
          "internalType": "string",
          "name": "tokenSymbol",
          "type": "string"
        },
        {
          "internalType": "address",
          "name": "minter",
          "type": "address"
        }
      ],
      "stateMutability": "nonpayable",
      "type": "constructor"
    },
    {
      "inputs": [],
      "name": "AccessControlBadConfirmation",
      "type": "error"
    },
    {
      "inputs": [
        {
          "internalType": "address",
          "name": "account",
          "type": "address"
        },
        {
          "internalType": "bytes32",
          "name": "neededRole",
          "type": "bytes32"
        }
      ],
      "name": "AccessControlUnauthorizedAccount",
      "type": "error"
    },
    {
      "inputs": [
        {
          "internalType": "address",
          "name": "sender",
          "type": "address"
        },
        {
          "internalType": "uint256",
          "name": "tokenId",
          "type": "uint256"
        },
        {
          "internalType": "address",
          "name": "owner",
          "type": "address"
        }
      ],
      "name": "ERC721IncorrectOwner",
      "type": "error"
    },
    {
      "inputs": [
        {
          "internalType": "address",
          "name": "operator",
          "type": "address"
        },
        {
          "internalType": "uint256",
          "name": "tokenId",
          "type": "uint256"
        }
      ],
      "name": "ERC721InsufficientApproval",
      "type": "error"
    },
    {
      "inputs": [
        {
          "internalType": "address",
          "name": "approver",
          "type": "address"
        }
      ],
      "name": "ERC721InvalidApprover",
      "type": "error"
    },
    {
      "inputs": [
        {
          "internalType": "address",
          "name": "operator",
          "type": "address"
        }
      ],
      "name": "ERC721InvalidOperator",
      "type": "error"
    },
    {
      "inputs": [
        {
          "internalType": "address",
          "name": "owner",
          "type": "address"
        }
      ],
      "name": "ERC721InvalidOwner",
      "type": "error"
    },
    {
      "inputs": [
        {
          "internalType": "address",
          "name": "receiver",
          "type": "address"
        }
      ],
      "name": "ERC721InvalidReceiver",
      "type": "error"
    },
    {
      "inputs": [
        {
          "internalType": "address",
          "name": "sender",
          "type": "address"
        }
      ],
      "name": "ERC721InvalidSender",
      "type": "error"
    },
    {
      "inputs": [
        {
          "internalType": "uint256",
          "name": "tokenId",
          "type": "uint256"
        }
      ],
      "name": "ERC721NonexistentToken",
      "type": "error"
    },
    {
      "anonymous": false,
      "inputs": [
        {
          "indexed": true,
          "internalType": "address",
          "name": "owner",
          "type": "address"
        },
        {
          "indexed": true,
          "internalType": "address",
          "name": "approved",
          "type": "address"
        },
        {
          "indexed": true,
          "internalType": "uint256",
          "name": "tokenId",
          "type": "uint256"
        }
      ],
      "name": "Approval",
      "type": "event"
    },
    {
      "anonymous": false,
      "inputs": [
        {
          "indexed": true,
          "internalType": "address",
          "name": "owner",
          "type": "address"
        },
        {
          "indexed": true,
          "internalType": "address",
          "name": "operator",
          "type": "address"
        },
        {
          "indexed": false,
          "internalType": "bool",
          "name": "approved",
          "type": "bool"
        }
      ],
      "name": "ApprovalForAll",
      "type": "event"
    },
    {
      "anonymous": false,
      "inputs": [
        {
          "indexed": true,
          "internalType": "bytes32",
          "name": "role",
          "type": "bytes32"
        },
        {
          "indexed": true,
          "internalType": "bytes32",
          "name": "previousAdminRole",
          "type": "bytes32"
        },
        {
          "indexed": true,
          "internalType": "bytes32",
          "name": "newAdminRole",
          "type": "bytes32"
        }
      ],
      "name": "RoleAdminChanged",
      "type": "event"
    },
    {
      "anonymous": false,
      "inputs": [
        {
          "indexed": true,
          "internalType": "bytes32",
          "name": "role",
          "type": "bytes32"
        },
        {
          "indexed": true,
          "internalType": "address",
          "name": "account",
          "type": "address"
        },
        {
          "indexed": true,
          "internalType": "address",
          "name": "sender",
          "type": "address"
        }
      ],
      "name": "RoleGranted",
      "type": "event"
    },
    {
      "anonymous": false,
      "inputs": [
        {
          "indexed": true,
          "internalType": "bytes32",
          "name": "role",
          "type": "bytes32"
        },
        {
          "indexed": true,
          "internalType": "address",
          "name": "account",
          "type": "address"
        },
        {
          "indexed": true,
          "internalType": "address",
          "name": "sender",
          "type": "address"
        }
      ],
      "name": "RoleRevoked",
      "type": "event"
    },
    {
      "anonymous": false,
      "inputs": [
        {
          "indexed": true,
          "internalType": "address",
          "name": "from",
          "type": "address"
        },
        {
          "indexed": true,
          "internalType": "address",
          "name": "to",
          "type": "address"
        },
        {
          "indexed": true,
          "internalType": "uint256",
          "name": "tokenId",
          "type": "uint256"
        }
      ],
      "name": "Transfer",
      "type": "event"
    },
    {
      "inputs": [],
      "name": "DEFAULT_ADMIN_ROLE",
      "outputs": [
        {
          "internalType": "bytes32",
          "name": "",
          "type": "bytes32"
        }
      ],
      "stateMutability": "view",
      "type": "function"
    },
    {
      "inputs": [],
      "name": "MINTER_ROLE",
      "outputs": [
        {
          "internalType": "bytes32",
          "name": "",
          "type": "bytes32"
        }
      ],
      "stateMutability": "view",
      "type": "function"
    },
    {
      "inputs": [
        {
          "internalType": "address",
          "name": "to",
          "type": "address"
        },
        {
          "internalType": "uint256",
          "name": "tokenId",
          "type": "uint256"
        }
      ],
      "name": "approve",
      "outputs": [],
      "stateMutability": "nonpayable",
      "type": "function"
    },
    {
      "inputs": [
        {
          "internalType": "address",
          "name": "owner",
          "type": "address"
        }
      ],
      "name": "balanceOf",
      "outputs": [
        {
          "internalType": "uint256",
          "name": "",
          "type": "uint256"
        }
      ],
      "stateMutability": "view",
      "type": "function"
    },
    {
      "inputs": [
        {
          "internalType": "uint256",
          "name": "tokenId",
          "type": "uint256"
        }
      ],
      "name": "burn",
      "outputs": [],
      "stateMutability": "nonpayable",
      "type": "function"
    },
    {
      "inputs": [
        {
          "internalType": "uint256",
          "name": "tokenId",
          "type": "uint256"
        }
      ],
      "name": "getApproved",
      "outputs": [
        {
          "internalType": "address",
          "name": "",
          "type": "address"
        }
      ],
      "stateMutability": "view",
      "type": "function"
    },
    {
      "inputs": [
        {
          "internalType": "bytes32",
          "name": "role",
          "type": "bytes32"
        }
      ],
      "name": "getRoleAdmin",
      "outputs": [
        {
          "internalType": "bytes32",
          "name": "",
          "type": "bytes32"
        }
      ],
      "stateMutability": "view",
      "type": "function"
    },
    {
      "inputs": [
        {
          "internalType": "bytes32",
          "name": "role",
          "type": "bytes32"
        },
        {
          "internalType": "address",
          "name": "account",
          "type": "address"
        }
      ],
      "name": "grantRole",
      "outputs": [],
      "stateMutability": "nonpayable",
      "type": "function"
    },
    {
      "inputs": [
        {
          "internalType": "bytes32",
          "name": "role",
          "type": "bytes32"
        },
        {
          "internalType": "address",
          "name": "account",
          "type": "address"
        }
      ],
      "name": "hasRole",
      "outputs": [
        {
          "internalType": "bool",
          "name": "",
          "type": "bool"
        }
      ],
      "stateMutability": "view",
      "type": "function"
    },
    {
      "inputs": [
        {
          "internalType": "address",
          "name": "owner",
          "type": "address"
        },
        {
          "internalType": "address",
          "name": "operator",
          "type": "address"
        }
      ],
      "name": "isApprovedForAll",
      "outputs": [
        {
          "internalType": "bool",
          "name": "",
          "type": "bool"
        }
      ],
      "stateMutability": "view",
      "type": "function"
    },
    {
      "inputs": [],
      "name": "name",
      "outputs": [
        {
          "internalType": "string",
          "name": "",
          "type": "string"
        }
      ],
      "stateMutability": "view",
      "type": "function"
    },
    {
      "inputs": [
        {
          "internalType": "uint256",
          "name": "tokenId",
          "type": "uint256"
        }
      ],
      "name": "ownerOf",
      "outputs": [
        {
          "internalType": "address",
          "name": "",
          "type": "address"
        }
      ],
      "stateMutability": "view",
      "type": "function"
    },
    {
      "inputs": [
        {
          "internalType": "bytes32",
          "name": "role",
          "type": "bytes32"
        },
        {
          "internalType": "address",
          "name": "callerConfirmation",
          "type": "address"
        }
      ],
      "name": "renounceRole",
      "outputs": [],
      "stateMutability": "nonpayable",
      "type": "function"
    },
    {
      "inputs": [
        {
          "internalType": "bytes32",
          "name": "role",
          "type": "bytes32"
        },
        {
          "internalType": "address",
          "name": "account",
          "type": "address"
        }
      ],
      "name": "revokeRole",
      "outputs": [],
      "stateMutability": "nonpayable",
      "type": "function"
    },
    {
      "inputs": [
        {
          "internalType": "address",
          "name": "to",
          "type": "address"
        }
      ],
      "name": "safeMint",
      "outputs": [],
      "stateMutability": "nonpayable",
      "type": "function"
    },
    {
      "inputs": [
        {
          "internalType": "address",
          "name": "from",
          "type": "address"
        },
        {
          "internalType": "address",
          "name": "to",
          "type": "address"
        },
        {
          "internalType": "uint256",
          "name": "tokenId",
          "type": "uint256"
        }
      ],
      "name": "safeTransferFrom",
      "outputs": [],
      "stateMutability": "nonpayable",
      "type": "function"
    },
    {
      "inputs": [
        {
          "internalType": "address",
          "name": "from",
          "type": "address"
        },
        {
          "internalType": "address",
          "name": "to",
          "type": "address"
        },
        {
          "internalType": "uint256",
          "name": "tokenId",
          "type": "uint256"
        },
        {
          "internalType": "bytes",
          "name": "data",
          "type": "bytes"
        }
      ],
      "name": "safeTransferFrom",
      "outputs": [],
      "stateMutability": "nonpayable",
      "type": "function"
    },
    {
      "inputs": [
        {
          "internalType": "address",
          "name": "operator",
          "type": "address"
        },
        {
          "internalType": "bool",
          "name": "approved",
          "type": "bool"
        }
      ],
      "name": "setApprovalForAll",
      "outputs": [],
      "stateMutability": "nonpayable",
      "type": "function"
    },
    {
      "inputs": [
        {
          "internalType": "string",
          "name": "baseUri_",
          "type": "string"
        }
      ],
      "name": "setBaseURI",
      "outputs": [],
      "stateMutability": "nonpayable",
      "type": "function"
    },
    {
      "inputs": [
        {
          "internalType": "bytes4",
          "name": "interfaceId",
          "type": "bytes4"
        }
      ],
      "name": "supportsInterface",
      "outputs": [
        {
          "internalType": "bool",
          "name": "",
          "type": "bool"
        }
      ],
      "stateMutability": "view",
      "type": "function"
    },
    {
      "inputs": [],
      "name": "symbol",
      "outputs": [
        {
          "internalType": "string",
          "name": "",
          "type": "string"
        }
      ],
      "stateMutability": "view",
      "type": "function"
    },
    {
      "inputs": [
        {
          "internalType": "uint256",
          "name": "tokenId",
          "type": "uint256"
        }
      ],
      "name": "tokenURI",
      "outputs": [
        {
          "internalType": "string",
          "name": "",
          "type": "string"
        }
      ],
      "stateMutability": "view",
      "type": "function"
    },
    {
      "inputs": [
        {
          "internalType": "address",
          "name": "from",
          "type": "address"
        },
        {
          "internalType": "address",
          "name": "to",
          "type": "address"
        },
        {
          "internalType": "uint256",
          "name": "tokenId",
          "type": "uint256"
        }
      ],
      "name": "transferFrom",
      "outputs": [],
      "stateMutability": "nonpayable",
      "type": "function"
    }
  ],
  "bytecode": "0x60806040523480156200001157600080fd5b506040516200193638038062001936833981016040819052620000349162000217565b8282600062000044838262000335565b50600162000053828262000335565b5062000065915060009050336200009c565b50620000927f9f2df0fed2c77648de5860a4cc508cd0818c85b8b8a1ab4ceeef8d981c8956a6826200009c565b5050505062000401565b60008281526006602090815260408083206001600160a01b038516845290915281205460ff16620001455760008381526006602090815260408083206001600160a01b03861684529091529020805460ff19166001179055620000fc3390565b6001600160a01b0316826001600160a01b0316847f2f8788117e7eff1d82e926ec794901d17c78024a50270940304540a733656f0d60405160405180910390a450600162000149565b5060005b92915050565b634e487b7160e01b600052604160045260246000fd5b600082601f8301126200017757600080fd5b81516001600160401b03808211156200019457620001946200014f565b604051601f8301601f19908116603f01168101908282118183101715620001bf57620001bf6200014f565b8160405283815260209250866020858801011115620001dd57600080fd5b600091505b83821015620002015785820183015181830184015290820190620001e2565b6000602085830101528094505050505092915050565b6000806000606084860312156200022d57600080fd5b83516001600160401b03808211156200024557600080fd5b620002538783880162000165565b945060208601519150808211156200026a57600080fd5b50620002798682870162000165565b604086015190935090506001600160a01b03811681146200029957600080fd5b809150509250925092565b600181811c90821680620002b957607f821691505b602082108103620002da57634e487b7160e01b600052602260045260246000fd5b50919050565b601f82111562000330576000816000526020600020601f850160051c810160208610156200030b5750805b601f850160051c820191505b818110156200032c5782815560010162000317565b5050505b505050565b81516001600160401b038111156200035157620003516200014f565b6200036981620003628454620002a4565b84620002e0565b602080601f831160018114620003a15760008415620003885750858301515b600019600386901b1c1916600185901b1785556200032c565b600085815260208120601f198616915b82811015620003d257888601518255948401946001909101908401620003b1565b5085821015620003f15787850151600019600388901b60f8161c191681555b5050505050600190811b01905550565b61152580620004116000396000f3fe608060405234801561001057600080fd5b506004361061014d5760003560e01c806355f804b3116100c3578063a22cb4651161007c578063a22cb465146102ce578063b88d4fde146102e1578063c87b56dd146102f4578063d539139314610307578063d547741f1461032e578063e985e9c51461034157600080fd5b806355f804b3146102725780636352211e1461028557806370a082311461029857806391d14854146102ab57806395d89b41146102be578063a217fddf146102c657600080fd5b8063248a9ca311610115578063248a9ca3146101e25780632f2ff15d1461021357806336568abe1461022657806340d097c31461023957806342842e0e1461024c57806342966c681461025f57600080fd5b806301ffc9a71461015257806306fdde031461017a578063081812fc1461018f578063095ea7b3146101ba57806323b872dd146101cf575b600080fd5b610165610160366004610fc9565b610354565b60405190151581526020015b60405180910390f35b610182610365565b6040516101719190611036565b6101a261019d366004611049565b6103f7565b6040516001600160a01b039091168152602001610171565b6101cd6101c836600461107e565b610420565b005b6101cd6101dd3660046110a8565b61042f565b6102056101f0366004611049565b60009081526006602052604090206001015490565b604051908152602001610171565b6101cd6102213660046110e4565b6104bf565b6101cd6102343660046110e4565b6104e4565b6101cd610247366004611110565b61051c565b6101cd61025a3660046110a8565b610567565b6101cd61026d366004611049565b610582565b6101cd61028036600461112b565b61058e565b6101a2610293366004611049565b6105a6565b6102056102a6366004611110565b6105b1565b6101656102b93660046110e4565b6105f9565b610182610624565b610205600081565b6101cd6102dc36600461119d565b610633565b6101cd6102ef3660046111ef565b61063e565b610182610302366004611049565b610655565b6102057f9f2df0fed2c77648de5860a4cc508cd0818c85b8b8a1ab4ceeef8d981c8956a681565b6101cd61033c3660046110e4565b6106bd565b61016561034f3660046112cb565b6106e2565b600061035f82610710565b92915050565b606060008054610374906112f5565b80601f01602080910402602001604051908101604052809291908181526020018280546103a0906112f5565b80156103ed5780601f106103c2576101008083540402835291602001916103ed565b820191906000526020600020905b8154815290600101906020018083116103d057829003601f168201915b5050505050905090565b600061040282610735565b506000828152600460205260409020546001600160a01b031661035f565b61042b82823361076e565b5050565b6001600160a01b03821661045e57604051633250574960e11b8152600060048201526024015b60405180910390fd5b600061046b83833361077b565b9050836001600160a01b0316816001600160a01b0316146104b9576040516364283d7b60e01b81526001600160a01b0380861660048301526024820184905282166044820152606401610455565b50505050565b6000828152600660205260409020600101546104da81610874565b6104b98383610881565b6001600160a01b038116331461050d5760405163334bd91960e11b815260040160405180910390fd5b6105178282610915565b505050565b7f9f2df0fed2c77648de5860a4cc508cd0818c85b8b8a1ab4ceeef8d981c8956a661054681610874565b60078054600091826105578361132f565b9190505590506105178382610982565b6105178383836040518060200160405280600081525061063e565b61042b6000823361077b565b600061059981610874565b60086104b98385836113a6565b600061035f82610735565b60006001600160a01b0382166105dd576040516322718ad960e21b815260006004820152602401610455565b506001600160a01b031660009081526003602052604090205490565b60009182526006602090815260408084206001600160a01b0393909316845291905290205460ff1690565b606060018054610374906112f5565b61042b33838361099c565b61064984848461042f565b6104b984848484610a3b565b606061066082610735565b50600061066b610b64565b9050600081511161068b57604051806020016040528060008152506106b6565b8061069584610b73565b6040516020016106a6929190611466565b6040516020818303038152906040525b9392505050565b6000828152600660205260409020600101546106d881610874565b6104b98383610915565b6001600160a01b03918216600090815260056020908152604080832093909416825291909152205460ff1690565b60006001600160e01b03198216637965db0b60e01b148061035f575061035f82610c06565b6000818152600260205260408120546001600160a01b03168061035f57604051637e27328960e01b815260048101849052602401610455565b6105178383836001610c56565b6000828152600260205260408120546001600160a01b03908116908316156107a8576107a8818486610d5c565b6001600160a01b038116156107e6576107c5600085600080610c56565b6001600160a01b038116600090815260036020526040902080546000190190555b6001600160a01b03851615610815576001600160a01b0385166000908152600360205260409020805460010190555b60008481526002602052604080822080546001600160a01b0319166001600160a01b0389811691821790925591518793918516917fddf252ad1be2c89b69c2b068fc378daa952ba7f163c4a11628f55a4df523b3ef91a4949350505050565b61087e8133610dc0565b50565b600061088d83836105f9565b61090d5760008381526006602090815260408083206001600160a01b03861684529091529020805460ff191660011790556108c53390565b6001600160a01b0316826001600160a01b0316847f2f8788117e7eff1d82e926ec794901d17c78024a50270940304540a733656f0d60405160405180910390a450600161035f565b50600061035f565b600061092183836105f9565b1561090d5760008381526006602090815260408083206001600160a01b0386168085529252808320805460ff1916905551339286917ff6391f5c32d9c69d2a47ea670b442974b53935d1edc7fd64eb21e047a839171b9190a450600161035f565b61042b828260405180602001604052806000815250610df9565b6001600160a01b0382166109ce57604051630b61174360e31b81526001600160a01b0383166004820152602401610455565b6001600160a01b03838116600081815260056020908152604080832094871680845294825291829020805460ff191686151590811790915591519182527f17307eab39ab6107e8899845ad3d59bd9653f200f220920489ca2b5937696c31910160405180910390a3505050565b6001600160a01b0383163b156104b957604051630a85bd0160e11b81526001600160a01b0384169063150b7a0290610a7d903390889087908790600401611495565b6020604051808303816000875af1925050508015610ab8575060408051601f3d908101601f19168201909252610ab5918101906114d2565b60015b610b21573d808015610ae6576040519150601f19603f3d011682016040523d82523d6000602084013e610aeb565b606091505b508051600003610b1957604051633250574960e11b81526001600160a01b0385166004820152602401610455565b805181602001fd5b6001600160e01b03198116630a85bd0160e11b14610b5d57604051633250574960e11b81526001600160a01b0385166004820152602401610455565b5050505050565b606060088054610374906112f5565b60606000610b8083610e10565b600101905060008167ffffffffffffffff811115610ba057610ba06111d9565b6040519080825280601f01601f191660200182016040528015610bca576020820181803683370190505b5090508181016020015b600019016f181899199a1a9b1b9c1cb0b131b232b360811b600a86061a8153600a8504945084610bd457509392505050565b60006001600160e01b031982166380ac58cd60e01b1480610c3757506001600160e01b03198216635b5e139f60e01b145b8061035f57506301ffc9a760e01b6001600160e01b031983161461035f565b8080610c6a57506001600160a01b03821615155b15610d2c576000610c7a84610735565b90506001600160a01b03831615801590610ca65750826001600160a01b0316816001600160a01b031614155b8015610cb95750610cb781846106e2565b155b15610ce25760405163a9fbf51f60e01b81526001600160a01b0384166004820152602401610455565b8115610d2a5783856001600160a01b0316826001600160a01b03167f8c5be1e5ebec7d5bd14f71427d1e84f3dd0314c0f7b2291e5b200ac8c7c3b92560405160405180910390a45b505b5050600090815260046020526040902080546001600160a01b0319166001600160a01b0392909216919091179055565b610d67838383610ee8565b610517576001600160a01b038316610d9557604051637e27328960e01b815260048101829052602401610455565b60405163177e802f60e01b81526001600160a01b038316600482015260248101829052604401610455565b610dca82826105f9565b61042b5760405163e2517d3f60e01b81526001600160a01b038216600482015260248101839052604401610455565b610e038383610f4e565b6105176000848484610a3b565b60008072184f03e93ff9f4daa797ed6e38ed64bf6a1f0160401b8310610e4f5772184f03e93ff9f4daa797ed6e38ed64bf6a1f0160401b830492506040015b6d04ee2d6d415b85acef81000000008310610e7b576d04ee2d6d415b85acef8100000000830492506020015b662386f26fc100008310610e9957662386f26fc10000830492506010015b6305f5e1008310610eb1576305f5e100830492506008015b6127108310610ec557612710830492506004015b60648310610ed7576064830492506002015b600a831061035f5760010192915050565b60006001600160a01b03831615801590610f465750826001600160a01b0316846001600160a01b03161480610f225750610f2284846106e2565b80610f4657506000828152600460205260409020546001600160a01b038481169116145b949350505050565b6001600160a01b038216610f7857604051633250574960e11b815260006004820152602401610455565b6000610f868383600061077b565b90506001600160a01b03811615610517576040516339e3563760e11b815260006004820152602401610455565b6001600160e01b03198116811461087e57600080fd5b600060208284031215610fdb57600080fd5b81356106b681610fb3565b60005b83811015611001578181015183820152602001610fe9565b50506000910152565b60008151808452611022816020860160208601610fe6565b601f01601f19169290920160200192915050565b6020815260006106b6602083018461100a565b60006020828403121561105b57600080fd5b5035919050565b80356001600160a01b038116811461107957600080fd5b919050565b6000806040838503121561109157600080fd5b61109a83611062565b946020939093013593505050565b6000806000606084860312156110bd57600080fd5b6110c684611062565b92506110d460208501611062565b9150604084013590509250925092565b600080604083850312156110f757600080fd5b8235915061110760208401611062565b90509250929050565b60006020828403121561112257600080fd5b6106b682611062565b6000806020838503121561113e57600080fd5b823567ffffffffffffffff8082111561115657600080fd5b818501915085601f83011261116a57600080fd5b81358181111561117957600080fd5b86602082850101111561118b57600080fd5b60209290920196919550909350505050565b600080604083850312156111b057600080fd5b6111b983611062565b9150602083013580151581146111ce57600080fd5b809150509250929050565b634e487b7160e01b600052604160045260246000fd5b6000806000806080858703121561120557600080fd5b61120e85611062565b935061121c60208601611062565b925060408501359150606085013567ffffffffffffffff8082111561124057600080fd5b818701915087601f83011261125457600080fd5b813581811115611266576112666111d9565b604051601f8201601f19908116603f0116810190838211818310171561128e5761128e6111d9565b816040528281528a60208487010111156112a757600080fd5b82602086016020830137600060208483010152809550505050505092959194509250565b600080604083850312156112de57600080fd5b6112e783611062565b915061110760208401611062565b600181811c9082168061130957607f821691505b60208210810361132957634e487b7160e01b600052602260045260246000fd5b50919050565b60006001820161134f57634e487b7160e01b600052601160045260246000fd5b5060010190565b601f821115610517576000816000526020600020601f850160051c8101602086101561137f5750805b601f850160051c820191505b8181101561139e5782815560010161138b565b505050505050565b67ffffffffffffffff8311156113be576113be6111d9565b6113d2836113cc83546112f5565b83611356565b6000601f84116001811461140657600085156113ee5750838201355b600019600387901b1c1916600186901b178355610b5d565b600083815260209020601f19861690835b828110156114375786850135825560209485019460019092019101611417565b50868210156114545760001960f88860031b161c19848701351681555b505060018560011b0183555050505050565b60008351611478818460208801610fe6565b83519083019061148c818360208801610fe6565b01949350505050565b6001600160a01b03858116825284166020820152604081018390526080606082018190526000906114c89083018461100a565b9695505050505050565b6000602082840312156114e457600080fd5b81516106b681610fb356fea2646970667358221220845a6ff6a915e00256fcd66bb57558761886219fbb062fdf41daa61349220f7f64736f6c63430008180033",
  "linkReferences": {},
  "deployedLinkReferences": {}
}