{
  "_format": "hh-sol-artifact-1",
  "contractName": "Funding",
  "sourceName": "contracts/Funding.sol",
  "abi": [
    {
      "inputs": [
        {
          "internalType": "uint256",
          "name": "minimumInvestmentAmount_",
          "type": "uint256"
        },
        {
          "internalType": "uint256",
          "name": "targetAmount_",
          "type": "uint256"
        },
        {
          "internalType": "uint256",
          "name": "fundingPeriodLimitInDays_",
          "type": "uint256"
        },
        {
          "internalType": "address",
          "name": "usdcTokenAddress_",
          "type": "address"
        }
      ],
      "stateMutability": "nonpayable",
      "type": "constructor"
    },
    {
      "inputs": [],
      "name": "AccessControlBadConfirmation",
      "type": "error"
    },
    {
      "inputs": [
        {
          "internalType": "address",
          "name": "account",
          "type": "address"
        },
        {
          "internalType": "bytes32",
          "name": "neededRole",
          "type": "bytes32"
        }
      ],
      "name": "AccessControlUnauthorizedAccount",
      "type": "error"
    },
    {
      "inputs": [],
      "name": "EnforcedPause",
      "type": "error"
    },
    {
      "inputs": [],
      "name": "ExpectedPause",
      "type": "error"
    },
    {
      "inputs": [
        {
          "internalType": "uint256",
          "name": "invested",
          "type": "uint256"
        },
        {
          "internalType": "uint256",
          "name": "minimum",
          "type": "uint256"
        }
      ],
      "name": "FundingBelowMinimum",
      "type": "error"
    },
    {
      "inputs": [],
      "name": "FundingCannotBeZeroAddress",
      "type": "error"
    },
    {
      "inputs": [
        {
          "internalType": "uint256",
          "name": "currentBalance",
          "type": "uint256"
        },
        {
          "internalType": "uint256",
          "name": "target",
          "type": "uint256"
        }
      ],
      "name": "FundingExceedsTargetAmount",
      "type": "error"
    },
    {
      "inputs": [
        {
          "internalType": "uint256",
          "name": "available",
          "type": "uint256"
        },
        {
          "internalType": "uint256",
          "name": "required",
          "type": "uint256"
        }
      ],
      "name": "FundingInsufficientBalance",
      "type": "error"
    },
    {
      "inputs": [],
      "name": "FundingInvestorsAmountToRefundTooBig",
      "type": "error"
    },
    {
      "inputs": [],
      "name": "FundingMinimumCannotBeZero",
      "type": "error"
    },
    {
      "inputs": [],
      "name": "FundingNoInvestorsToRefund",
      "type": "error"
    },
    {
      "inputs": [],
      "name": "FundingNoRegisteredFunds",
      "type": "error"
    },
    {
      "inputs": [],
      "name": "FundingPeriodCannotBeZero",
      "type": "error"
    },
    {
      "inputs": [
        {
          "internalType": "uint256",
          "name": "finishedAt",
          "type": "uint256"
        }
      ],
      "name": "FundingPeriodFinished",
      "type": "error"
    },
    {
      "inputs": [
        {
          "internalType": "uint256",
          "name": "finishesAt",
          "type": "uint256"
        }
      ],
      "name": "FundingPeriodOngoing",
      "type": "error"
    },
    {
      "inputs": [],
      "name": "FundingTargetAmountReached",
      "type": "error"
    },
    {
      "inputs": [],
      "name": "FundingTargetCannotBeZero",
      "type": "error"
    },
    {
      "inputs": [],
      "name": "FundingTargetTooSmall",
      "type": "error"
    },
    {
      "inputs": [],
      "name": "InvestorNFTCannotBeZeroAddress",
      "type": "error"
    },
    {
      "inputs": [],
      "name": "ReentrancyGuardReentrantCall",
      "type": "error"
    },
    {
      "anonymous": false,
      "inputs": [
        {
          "indexed": false,
          "internalType": "address",
          "name": "investor",
          "type": "address"
        },
        {
          "indexed": false,
          "internalType": "uint256",
          "name": "amount",
          "type": "uint256"
        },
        {
          "indexed": false,
          "internalType": "uint256",
          "name": "timestamp",
          "type": "uint256"
        }
      ],
      "name": "InvestmentMade",
      "type": "event"
    },
    {
      "anonymous": false,
      "inputs": [
        {
          "indexed": false,
          "internalType": "address",
          "name": "account",
          "type": "address"
        }
      ],
      "name": "Paused",
      "type": "event"
    },
    {
      "anonymous": false,
      "inputs": [
        {
          "indexed": false,
          "internalType": "uint256",
          "name": "amountOfInvestors",
          "type": "uint256"
        },
        {
          "indexed": false,
          "internalType": "uint256",
          "name": "timestamp",
          "type": "uint256"
        }
      ],
      "name": "RefundedInvestors",
      "type": "event"
    },
    {
      "anonymous": false,
      "inputs": [
        {
          "indexed": true,
          "internalType": "bytes32",
          "name": "role",
          "type": "bytes32"
        },
        {
          "indexed": true,
          "internalType": "bytes32",
          "name": "previousAdminRole",
          "type": "bytes32"
        },
        {
          "indexed": true,
          "internalType": "bytes32",
          "name": "newAdminRole",
          "type": "bytes32"
        }
      ],
      "name": "RoleAdminChanged",
      "type": "event"
    },
    {
      "anonymous": false,
      "inputs": [
        {
          "indexed": true,
          "internalType": "bytes32",
          "name": "role",
          "type": "bytes32"
        },
        {
          "indexed": true,
          "internalType": "address",
          "name": "account",
          "type": "address"
        },
        {
          "indexed": true,
          "internalType": "address",
          "name": "sender",
          "type": "address"
        }
      ],
      "name": "RoleGranted",
      "type": "event"
    },
    {
      "anonymous": false,
      "inputs": [
        {
          "indexed": true,
          "internalType": "bytes32",
          "name": "role",
          "type": "bytes32"
        },
        {
          "indexed": true,
          "internalType": "address",
          "name": "account",
          "type": "address"
        },
        {
          "indexed": true,
          "internalType": "address",
          "name": "sender",
          "type": "address"
        }
      ],
      "name": "RoleRevoked",
      "type": "event"
    },
    {
      "anonymous": false,
      "inputs": [
        {
          "indexed": false,
          "internalType": "address",
          "name": "account",
          "type": "address"
        }
      ],
      "name": "Unpaused",
      "type": "event"
    },
    {
      "anonymous": false,
      "inputs": [
        {
          "indexed": false,
          "internalType": "address",
          "name": "investor",
          "type": "address"
        },
        {
          "indexed": false,
          "internalType": "uint256",
          "name": "amount",
          "type": "uint256"
        },
        {
          "indexed": false,
          "internalType": "uint256",
          "name": "timestamp",
          "type": "uint256"
        }
      ],
      "name": "WithdrawalMade",
      "type": "event"
    },
    {
      "inputs": [],
      "name": "DEFAULT_ADMIN_ROLE",
      "outputs": [
        {
          "internalType": "bytes32",
          "name": "",
          "type": "bytes32"
        }
      ],
      "stateMutability": "view",
      "type": "function"
    },
    {
      "inputs": [],
      "name": "WHALE_INVESTOR_THRESHOLD",
      "outputs": [
        {
          "internalType": "uint256",
          "name": "",
          "type": "uint256"
        }
      ],
      "stateMutability": "view",
      "type": "function"
    },
    {
      "inputs": [],
      "name": "bondDistribution",
      "outputs": [
        {
          "internalType": "contract BondDistribution",
          "name": "",
          "type": "address"
        }
      ],
      "stateMutability": "view",
      "type": "function"
    },
    {
      "inputs": [],
      "name": "bondPriceSet",
      "outputs": [
        {
          "internalType": "bool",
          "name": "",
          "type": "bool"
        }
      ],
      "stateMutability": "view",
      "type": "function"
    },
    {
      "inputs": [],
      "name": "getFundingPeriodLimit",
      "outputs": [
        {
          "internalType": "uint256",
          "name": "",
          "type": "uint256"
        }
      ],
      "stateMutability": "view",
      "type": "function"
    },
    {
      "inputs": [],
      "name": "getInvestorAmount",
      "outputs": [
        {
          "internalType": "uint256",
          "name": "",
          "type": "uint256"
        }
      ],
      "stateMutability": "view",
      "type": "function"
    },
    {
      "inputs": [],
      "name": "getMinimumInvestmentAmount",
      "outputs": [
        {
          "internalType": "uint256",
          "name": "",
          "type": "uint256"
        }
      ],
      "stateMutability": "view",
      "type": "function"
    },
    {
      "inputs": [
        {
          "internalType": "bytes32",
          "name": "role",
          "type": "bytes32"
        }
      ],
      "name": "getRoleAdmin",
      "outputs": [
        {
          "internalType": "bytes32",
          "name": "",
          "type": "bytes32"
        }
      ],
      "stateMutability": "view",
      "type": "function"
    },
    {
      "inputs": [
        {
          "internalType": "bytes32",
          "name": "role",
          "type": "bytes32"
        },
        {
          "internalType": "address",
          "name": "account",
          "type": "address"
        }
      ],
      "name": "grantRole",
      "outputs": [],
      "stateMutability": "nonpayable",
      "type": "function"
    },
    {
      "inputs": [
        {
          "internalType": "bytes32",
          "name": "role",
          "type": "bytes32"
        },
        {
          "internalType": "address",
          "name": "account",
          "type": "address"
        }
      ],
      "name": "hasRole",
      "outputs": [
        {
          "internalType": "bool",
          "name": "",
          "type": "bool"
        }
      ],
      "stateMutability": "view",
      "type": "function"
    },
    {
      "inputs": [
        {
          "internalType": "uint256",
          "name": "daysToAddToFundingPeriodLimit_",
          "type": "uint256"
        }
      ],
      "name": "incrementFundingPeriodLimit",
      "outputs": [],
      "stateMutability": "nonpayable",
      "type": "function"
    },
    {
      "inputs": [
        {
          "internalType": "uint256",
          "name": "investmentAmount_",
          "type": "uint256"
        }
      ],
      "name": "invest",
      "outputs": [],
      "stateMutability": "nonpayable",
      "type": "function"
    },
    {
      "inputs": [
        {
          "internalType": "address",
          "name": "",
          "type": "address"
        }
      ],
      "name": "investedAmountPerInvestor",
      "outputs": [
        {
          "internalType": "uint256",
          "name": "investedAmount",
          "type": "uint256"
        },
        {
          "internalType": "uint256",
          "name": "investorIndex",
          "type": "uint256"
        },
        {
          "internalType": "bool",
          "name": "isWhaleInvestor",
          "type": "bool"
        }
      ],
      "stateMutability": "view",
      "type": "function"
    },
    {
      "inputs": [
        {
          "internalType": "uint256",
          "name": "index",
          "type": "uint256"
        }
      ],
      "name": "investors",
      "outputs": [
        {
          "internalType": "address",
          "name": "",
          "type": "address"
        }
      ],
      "stateMutability": "view",
      "type": "function"
    },
    {
      "inputs": [],
      "name": "ogNFT",
      "outputs": [
        {
          "internalType": "contract InvestorNFT",
          "name": "",
          "type": "address"
        }
      ],
      "stateMutability": "view",
      "type": "function"
    },
    {
      "inputs": [],
      "name": "pause",
      "outputs": [],
      "stateMutability": "nonpayable",
      "type": "function"
    },
    {
      "inputs": [],
      "name": "paused",
      "outputs": [
        {
          "internalType": "bool",
          "name": "",
          "type": "bool"
        }
      ],
      "stateMutability": "view",
      "type": "function"
    },
    {
      "inputs": [
        {
          "internalType": "uint256",
          "name": "amountOfInvestorsToRefund_",
          "type": "uint256"
        }
      ],
      "name": "refundInvestors",
      "outputs": [],
      "stateMutability": "nonpayable",
      "type": "function"
    },
    {
      "inputs": [
        {
          "internalType": "bytes32",
          "name": "role",
          "type": "bytes32"
        },
        {
          "internalType": "address",
          "name": "callerConfirmation",
          "type": "address"
        }
      ],
      "name": "renounceRole",
      "outputs": [],
      "stateMutability": "nonpayable",
      "type": "function"
    },
    {
      "inputs": [
        {
          "internalType": "bytes32",
          "name": "role",
          "type": "bytes32"
        },
        {
          "internalType": "address",
          "name": "account",
          "type": "address"
        }
      ],
      "name": "revokeRole",
      "outputs": [],
      "stateMutability": "nonpayable",
      "type": "function"
    },
    {
      "inputs": [
        {
          "internalType": "address",
          "name": "_bondDistribution",
          "type": "address"
        }
      ],
      "name": "setBondDistribution",
      "outputs": [],
      "stateMutability": "nonpayable",
      "type": "function"
    },
    {
      "inputs": [
        {
          "internalType": "uint256",
          "name": "_bondPrice",
          "type": "uint256"
        }
      ],
      "name": "setBondPriceAndInitiateMinting",
      "outputs": [],
      "stateMutability": "nonpayable",
      "type": "function"
    },
    {
      "inputs": [
        {
          "internalType": "uint256",
          "name": "minimumInvestmentAmount_",
          "type": "uint256"
        }
      ],
      "name": "setMinimumInvestmentAmount",
      "outputs": [],
      "stateMutability": "nonpayable",
      "type": "function"
    },
    {
      "inputs": [
        {
          "internalType": "address",
          "name": "ogNFTAddress_",
          "type": "address"
        }
      ],
      "name": "setOgNFTAddress",
      "outputs": [],
      "stateMutability": "nonpayable",
      "type": "function"
    },
    {
      "inputs": [
        {
          "internalType": "uint256",
          "name": "targetAmount_",
          "type": "uint256"
        }
      ],
      "name": "setTargetAmount",
      "outputs": [],
      "stateMutability": "nonpayable",
      "type": "function"
    },
    {
      "inputs": [
        {
          "internalType": "address",
          "name": "whaleNFTAddress_",
          "type": "address"
        }
      ],
      "name": "setWhaleNFTAddress",
      "outputs": [],
      "stateMutability": "nonpayable",
      "type": "function"
    },
    {
      "inputs": [
        {
          "internalType": "bytes4",
          "name": "interfaceId",
          "type": "bytes4"
        }
      ],
      "name": "supportsInterface",
      "outputs": [
        {
          "internalType": "bool",
          "name": "",
          "type": "bool"
        }
      ],
      "stateMutability": "view",
      "type": "function"
    },
    {
      "inputs": [],
      "name": "targetAmount",
      "outputs": [
        {
          "internalType": "uint256",
          "name": "",
          "type": "uint256"
        }
      ],
      "stateMutability": "view",
      "type": "function"
    },
    {
      "inputs": [],
      "name": "unpause",
      "outputs": [],
      "stateMutability": "nonpayable",
      "type": "function"
    },
    {
      "inputs": [],
      "name": "usdcToken",
      "outputs": [
        {
          "internalType": "contract IERC20",
          "name": "",
          "type": "address"
        }
      ],
      "stateMutability": "view",
      "type": "function"
    },
    {
      "inputs": [],
      "name": "whaleNFT",
      "outputs": [
        {
          "internalType": "contract InvestorNFT",
          "name": "",
          "type": "address"
        }
      ],
      "stateMutability": "view",
      "type": "function"
    },
    {
      "inputs": [],
      "name": "withdraw",
      "outputs": [],
      "stateMutability": "nonpayable",
      "type": "function"
    }
  ],
  "bytecode": "0x60a06040523480156200001157600080fd5b5060405162001cb438038062001cb48339810160408190526200003491620001cb565b6001805460ff1916815560025560008490036200006457604051630289423360e11b815260040160405180910390fd5b8260000362000086576040516358f90cb360e11b815260040160405180910390fd5b81600003620000a85760405163058dad3d60e51b815260040160405180910390fd5b6001600160a01b038116620000d0576040516365400b5960e01b815260040160405180910390fd5b620000dd6000336200011c565b5060058490556006839055620000f7826201518062000232565b6200010390426200024c565b6007556001600160a01b03166080525062000262915050565b6000828152602081815260408083206001600160a01b038516845290915281205460ff16620001c1576000838152602081815260408083206001600160a01b03861684529091529020805460ff19166001179055620001783390565b6001600160a01b0316826001600160a01b0316847f2f8788117e7eff1d82e926ec794901d17c78024a50270940304540a733656f0d60405160405180910390a4506001620001c5565b5060005b92915050565b60008060008060808587031215620001e257600080fd5b845160208601516040870151606088015192965090945092506001600160a01b03811681146200021157600080fd5b939692955090935050565b634e487b7160e01b600052601160045260246000fd5b8082028115828204841417620001c557620001c56200021c565b80820180821115620001c557620001c56200021c565b6080516119fe620002b660003960008181610237015281816105c7015281816106c00152818161079c0152818161097b01528181610aac01528181610e7b0152818161103f015261154501526119fe6000f3fe608060405234801561001057600080fd5b50600436106101f05760003560e01c80635c975abb1161010f5780639bafe6c0116100a2578063b5aa3b7511610071578063b5aa3b7514610448578063d547741f14610450578063e505b0c714610463578063ead6d69e1461047657600080fd5b80639bafe6c0146104125780639ee987b21461041a578063a217fddf1461042d578063a34f5cd81461043557600080fd5b80638766fbb1116100de5780638766fbb11461039b57806389c6a42c146103ea57806391d14854146103f6578063953b8fb81461040957600080fd5b80635c975abb1461036257806376ac85a81461036d578063803100c8146103805780638456cb591461039357600080fd5b80632f2ff15d116101875780633feb5f2b116101565780633feb5f2b146103155780634539a7e1146103285780634d55ed9b1461033b57806353ce46261461034e57600080fd5b80632f2ff15d146102df57806336568abe146102f25780633ccfd60b146103055780633f4ba83a1461030d57600080fd5b806317b1090b116101c357806317b1090b1461028457806322b3b1ad14610297578063248a9ca3146102a95780632afcf480146102cc57600080fd5b806301ffc9a7146101f55780630930618b1461021d57806311eac855146102325780631553c74014610271575b600080fd5b6102086102033660046117e4565b610489565b60405190151581526020015b60405180910390f35b61023061022b366004611815565b6104c0565b005b6102597f000000000000000000000000000000000000000000000000000000000000000081565b6040516001600160a01b039091168152602001610214565b600454610259906001600160a01b031681565b600354610259906001600160a01b031681565b6007545b604051908152602001610214565b61029b6102b7366004611815565b60009081526020819052604090206001015490565b6102306102da366004611815565b610546565b6102306102ed36600461184a565b6108a0565b61023061030036600461184a565b6108c5565b6102306108fd565b610230610ba8565b610259610323366004611815565b610bbe565b610230610336366004611815565b610bee565b610230610349366004611815565b610c4a565b600a5461020890600160a01b900460ff1681565b60015460ff16610208565b61023061037b366004611876565b610ca7565b61023061038e366004611876565b610cfc565b610230610d51565b6103cd6103a9366004611876565b60096020526000908152604090208054600182015460029092015490919060ff1683565b604080519384526020840192909252151590820152606001610214565b61029b64012a05f20081565b61020861040436600461184a565b610d64565b61029b60065481565b60085461029b565b610230610428366004611815565b610d8d565b61029b600081565b610230610443366004611876565b610f76565b60055461029b565b61023061045e36600461184a565b610fa4565b610230610471366004611815565b610fc9565b600a54610259906001600160a01b031681565b60006001600160e01b03198216637965db0b60e01b14806104ba57506301ffc9a760e01b6001600160e01b03198316145b92915050565b60006104cb81611222565b600a54600160a01b900460ff16156104fe5760405162461bcd60e51b81526004016104f590611891565b60405180910390fd5b8160000361051f5760405163058dad3d60e51b815260040160405180910390fd5b61052c82620151806118f7565b6007600082825461053d919061190e565b90915550505050565b60035481906001600160a01b0316158061056957506004546001600160a01b0316155b1561058757604051631c868b4f60e01b815260040160405180910390fd5b42600754116105af576007546040516327bab4f360e01b81526004016104f591815260200190565b6040516370a0823160e01b81523060048201526000907f00000000000000000000000000000000000000000000000000000000000000006001600160a01b0316906370a0823190602401602060405180830381865afa158015610616573d6000803e3d6000fd5b505050506040513d601f19601f8201168201806040525081019061063a9190611921565b60065490915061064a838361190e565b1115610677576006546040516337427f7d60e11b81526104f5918391600401918252602082015260400190565b6005548210156106a857600554604051631ead47ff60e01b81526104f5918491600401918252602082015260400190565b6040516370a0823160e01b81523360048201526000907f00000000000000000000000000000000000000000000000000000000000000006001600160a01b0316906370a0823190602401602060405180830381865afa15801561070f573d6000803e3d6000fd5b505050506040513d601f19601f820116820180604052508101906107339190611921565b90508281101561076057604051630b39833f60e41b815260048101829052602481018490526044016104f5565b61076861122c565b610770611254565b61077a338561127a565b6040516323b872dd60e01b8152336004820152306024820152604481018590527f00000000000000000000000000000000000000000000000000000000000000006001600160a01b0316906323b872dd906064016020604051808303816000875af11580156107ed573d6000803e3d6000fd5b505050506040513d601f19601f82011682018060405250810190610811919061193a565b6108515760405162461bcd60e51b8152602060048201526011602482015270125b9d995cdd1b595b9d0819985a5b1959607a1b60448201526064016104f5565b6040805133815260208101869052428183015290517f0a9bd546b0677820e552855be50bea4847cd782448e9f00d2543ceb3b91c2c5b9181900360600190a161089a6001600255565b50505050565b6000828152602081905260409020600101546108bb81611222565b61089a8383611407565b6001600160a01b03811633146108ee5760405163334bd91960e11b815260040160405180910390fd5b6108f88282611499565b505050565b610905611504565b3360009081526009602090815260408083208151606081018352815480825260018301549482019490945260029091015460ff1615159181019190915291819003610963576040516333be397f60e01b815260040160405180910390fd5b6040516370a0823160e01b81523060048201526000907f00000000000000000000000000000000000000000000000000000000000000006001600160a01b0316906370a0823190602401602060405180830381865afa1580156109ca573d6000803e3d6000fd5b505050506040513d601f19601f820116820180604052508101906109ee9190611921565b905081811015610a1b57604051630b39833f60e41b815260048101829052602481018390526044016104f5565b610a2361122c565b610a2b611254565b33600090815260096020526040902080546001820154600880549091908110610a5657610a5661195c565b6000918252602090912001546001600160a01b03163314610a7957610a79611972565b610a8682600101546115f9565b6000808355600183015560405163a9059cbb60e01b8152336004820152602481018290527f00000000000000000000000000000000000000000000000000000000000000006001600160a01b03169063a9059cbb906044016020604051808303816000875af1158015610afd573d6000803e3d6000fd5b505050506040513d601f19601f82011682018060405250810190610b21919061193a565b610b5d5760405162461bcd60e51b815260206004820152600d60248201526c1499599d5b990819985a5b1959609a1b60448201526064016104f5565b6040805133815260208101839052428183015290517f2d4d49c3e017b8235c908cbaa83a2431a08f3b950712696ece2088964fd399f09181900360600190a150506108f86001600255565b6000610bb381611222565b610bbb6116fb565b50565b600060088281548110610bd357610bd361195c565b6000918252602090912001546001600160a01b031692915050565b6000610bf981611222565b600a54600160a01b900460ff1615610c235760405162461bcd60e51b81526004016104f590611891565b81600003610c4457604051630289423360e11b815260040160405180910390fd5b50600555565b6000610c5581611222565b600a54600160a01b900460ff1615610c7f5760405162461bcd60e51b81526004016104f590611891565b6006548211610ca1576040516332d58aff60e01b815260040160405180910390fd5b50600655565b6000610cb281611222565b6001600160a01b038216610cd957604051631c868b4f60e01b815260040160405180910390fd5b50600480546001600160a01b0319166001600160a01b0392909216919091179055565b6000610d0781611222565b6001600160a01b038216610d2e57604051631c868b4f60e01b815260040160405180910390fd5b50600380546001600160a01b0319166001600160a01b0392909216919091179055565b6000610d5c81611222565b610bbb61174d565b6000918252602082815260408084206001600160a01b0393909316845291905290205460ff1690565b80610d96611504565b80600003610db7576040516342e0d85160e11b815260040160405180910390fd5b600854811115610dda57604051633d49b89f60e01b815260040160405180910390fd5b610de261122c565b610dea611254565b600080835b8015610f2d576008600081548110610e0957610e0961195c565b60009182526020808320909101546001600160a01b031680835260099091526040822080548382556001820184905591955090935090610e48906115f9565b81610e5281611988565b60405163a9059cbb60e01b81526001600160a01b038781166004830152602482018790529194507f0000000000000000000000000000000000000000000000000000000000000000909116915063a9059cbb906044016020604051808303816000875af1158015610ec7573d6000803e3d6000fd5b505050506040513d601f19601f82011682018060405250810190610eeb919061193a565b610f275760405162461bcd60e51b815260206004820152600d60248201526c1499599d5b990819985a5b1959609a1b60448201526064016104f5565b50610def565b604080518681524260208201527f965f783d8e21d3e7ce50257c7e66a293fa0f50b296dad79a71d53a9bfb809069910160405180910390a1505050610f726001600255565b5050565b6000610f8181611222565b50600a80546001600160a01b0319166001600160a01b0392909216919091179055565b600082815260208190526040902060010154610fbf81611222565b61089a8383611499565b6000610fd481611222565b600a54600160a01b900460ff16156110275760405162461bcd60e51b8152602060048201526016602482015275109bdb99081c1c9a58d948185b1c9958591e481cd95d60521b60448201526064016104f5565b6006546040516370a0823160e01b81523060048201527f00000000000000000000000000000000000000000000000000000000000000006001600160a01b0316906370a0823190602401602060405180830381865afa15801561108e573d6000803e3d6000fd5b505050506040513d601f19601f820116820180604052508101906110b29190611921565b10156111005760405162461bcd60e51b815260206004820152601960248201527f54617267657420616d6f756e74206e6f7420726561636865640000000000000060448201526064016104f5565b60075442106111515760405162461bcd60e51b815260206004820152601860248201527f46756e64696e6720706572696f642068617320656e646564000000000000000060448201526064016104f5565b600a54604051627dc55960e51b8152600481018490526001600160a01b0390911690630fb8ab2090602401600060405180830381600087803b15801561119657600080fd5b505af11580156111aa573d6000803e3d6000fd5b5050600a805460ff60a01b198116600160a01b1790915560408051630f2887a560e11b815290516001600160a01b039092169350631e510f4a925060048082019260009290919082900301818387803b15801561120657600080fd5b505af115801561121a573d6000803e3d6000fd5b505050505050565b610bbb8133611788565b600280540361124e57604051633ee5aeb560e01b815260040160405180910390fd5b60028055565b60015460ff16156112785760405163d93c066560e01b815260040160405180910390fd5b565b6001600160a01b0382166000908152600960205260408120805490910361135b57600880546001808201835560008390527ff3f7a9fe364faab93b216da50a3214154f22a0a2b415b23a84c8169e8b636ee390910180546001600160a01b0319166001600160a01b03871617905590546112f4919061199f565b6001820155600480546040516340d097c360e01b81526001600160a01b03868116938201939093529116906340d097c390602401600060405180830381600087803b15801561134257600080fd5b505af1158015611356573d6000803e3d6000fd5b505050505b8181600001600082825461136f919061190e565b9091555050805464012a05f2001180159061138f5750600281015460ff16155b156108f85760028101805460ff191660011790556003546040516340d097c360e01b81526001600160a01b038581166004830152909116906340d097c390602401600060405180830381600087803b1580156113ea57600080fd5b505af11580156113fe573d6000803e3d6000fd5b50505050505050565b60006114138383610d64565b611491576000838152602081815260408083206001600160a01b03861684529091529020805460ff191660011790556114493390565b6001600160a01b0316826001600160a01b0316847f2f8788117e7eff1d82e926ec794901d17c78024a50270940304540a733656f0d60405160405180910390a45060016104ba565b5060006104ba565b60006114a58383610d64565b15611491576000838152602081815260408083206001600160a01b0386168085529252808320805460ff1916905551339286917ff6391f5c32d9c69d2a47ea670b442974b53935d1edc7fd64eb21e047a839171b9190a45060016104ba565b60075442101561152d576007546040516309ec001360e11b81526004016104f591815260200190565b6006546040516370a0823160e01b81523060048201527f00000000000000000000000000000000000000000000000000000000000000006001600160a01b0316906370a0823190602401602060405180830381865afa158015611594573d6000803e3d6000fd5b505050506040513d601f19601f820116820180604052508101906115b89190611921565b106115d657604051631780354d60e21b815260040160405180910390fd5b600854600003611278576040516342e0d85160e11b815260040160405180910390fd5b60085460009061160b9060019061199f565b9050600060096000600884815481106116265761162661195c565b60009182526020808320909101546001600160a01b031683528201929092526040019020600181018490556008805491925090839081106116695761166961195c565b600091825260209091200154600880546001600160a01b0390921691859081106116955761169561195c565b9060005260206000200160006101000a8154816001600160a01b0302191690836001600160a01b0316021790555060088054806116d4576116d46119b2565b600082815260209020810160001990810180546001600160a01b0319169055019055505050565b6117036117c1565b6001805460ff191690557f5db9ee0a495bf2e6ff9c91a7834c1ba4fdd244a5e8aa4e537bd38aeae4b073aa335b6040516001600160a01b03909116815260200160405180910390a1565b611755611254565b6001805460ff1916811790557f62e78cea01bee320cd4e420270b5ea74000d11b0c9f74754ebdbfc544b05a25833611730565b6117928282610d64565b610f725760405163e2517d3f60e01b81526001600160a01b0382166004820152602481018390526044016104f5565b60015460ff1661127857604051638dfc202b60e01b815260040160405180910390fd5b6000602082840312156117f657600080fd5b81356001600160e01b03198116811461180e57600080fd5b9392505050565b60006020828403121561182757600080fd5b5035919050565b80356001600160a01b038116811461184557600080fd5b919050565b6000806040838503121561185d57600080fd5b8235915061186d6020840161182e565b90509250929050565b60006020828403121561188857600080fd5b61180e8261182e565b60208082526030908201527f426f6e6420707269636520616c7265616479207365742c2063616e6e6f74206d60408201526f6f6469667920706172616d657465727360801b606082015260800190565b634e487b7160e01b600052601160045260246000fd5b80820281158282048414176104ba576104ba6118e1565b808201808211156104ba576104ba6118e1565b60006020828403121561193357600080fd5b5051919050565b60006020828403121561194c57600080fd5b8151801515811461180e57600080fd5b634e487b7160e01b600052603260045260246000fd5b634e487b7160e01b600052600160045260246000fd5b600081611997576119976118e1565b506000190190565b818103818111156104ba576104ba6118e1565b634e487b7160e01b600052603160045260246000fdfea2646970667358221220ec02e0f5e17a130565a891a5a8a1e1590fa4e8d1b96b54c6872c750cc702e1df64736f6c63430008180033",
  "linkReferences": {},
  "deployedLinkReferences": {}
}