{
  "_format": "hh-sol-artifact-1",
  "contractName": "Funding",
  "sourceName": "contracts/Funding.sol",
  "abi": [
    {
      "inputs": [
        {
          "internalType": "uint256",
          "name": "minimumInvestmentAmount_",
          "type": "uint256"
        },
        {
          "internalType": "uint256",
          "name": "targetAmount_",
          "type": "uint256"
        },
        {
          "internalType": "uint256",
          "name": "fundingPeriodLimitInDays_",
          "type": "uint256"
        },
        {
          "internalType": "address",
          "name": "usdcTokenAddress_",
          "type": "address"
        }
      ],
      "stateMutability": "nonpayable",
      "type": "constructor"
    },
    {
      "inputs": [],
      "name": "AccessControlBadConfirmation",
      "type": "error"
    },
    {
      "inputs": [
        {
          "internalType": "address",
          "name": "account",
          "type": "address"
        },
        {
          "internalType": "bytes32",
          "name": "neededRole",
          "type": "bytes32"
        }
      ],
      "name": "AccessControlUnauthorizedAccount",
      "type": "error"
    },
    {
      "inputs": [],
      "name": "EnforcedPause",
      "type": "error"
    },
    {
      "inputs": [],
      "name": "ExpectedPause",
      "type": "error"
    },
    {
      "inputs": [
        {
          "internalType": "uint256",
          "name": "invested",
          "type": "uint256"
        },
        {
          "internalType": "uint256",
          "name": "minimum",
          "type": "uint256"
        }
      ],
      "name": "FundingBelowMinimum",
      "type": "error"
    },
    {
      "inputs": [],
      "name": "FundingCannotBeZeroAddress",
      "type": "error"
    },
    {
      "inputs": [
        {
          "internalType": "uint256",
          "name": "currentBalance",
          "type": "uint256"
        },
        {
          "internalType": "uint256",
          "name": "target",
          "type": "uint256"
        }
      ],
      "name": "FundingExceedsTargetAmount",
      "type": "error"
    },
    {
      "inputs": [
        {
          "internalType": "uint256",
          "name": "available",
          "type": "uint256"
        },
        {
          "internalType": "uint256",
          "name": "required",
          "type": "uint256"
        }
      ],
      "name": "FundingInsufficientBalance",
      "type": "error"
    },
    {
      "inputs": [],
      "name": "FundingInvestorsAmountToRefundTooBig",
      "type": "error"
    },
    {
      "inputs": [],
      "name": "FundingMinimumCannotBeZero",
      "type": "error"
    },
    {
      "inputs": [],
      "name": "FundingNoInvestorsToRefund",
      "type": "error"
    },
    {
      "inputs": [],
      "name": "FundingNoRegisteredFunds",
      "type": "error"
    },
    {
      "inputs": [],
      "name": "FundingPeriodCannotBeZero",
      "type": "error"
    },
    {
      "inputs": [
        {
          "internalType": "uint256",
          "name": "finishedAt",
          "type": "uint256"
        }
      ],
      "name": "FundingPeriodFinished",
      "type": "error"
    },
    {
      "inputs": [
        {
          "internalType": "uint256",
          "name": "finishesAt",
          "type": "uint256"
        }
      ],
      "name": "FundingPeriodOngoing",
      "type": "error"
    },
    {
      "inputs": [],
      "name": "FundingTargetAmountReached",
      "type": "error"
    },
    {
      "inputs": [],
      "name": "FundingTargetCannotBeZero",
      "type": "error"
    },
    {
      "inputs": [],
      "name": "FundingTargetTooSmall",
      "type": "error"
    },
    {
      "inputs": [],
      "name": "InvestorNFTCannotBeZeroAddress",
      "type": "error"
    },
    {
      "inputs": [],
      "name": "ReentrancyGuardReentrantCall",
      "type": "error"
    },
    {
      "anonymous": false,
      "inputs": [
        {
          "indexed": false,
          "internalType": "address",
          "name": "investor",
          "type": "address"
        },
        {
          "indexed": false,
          "internalType": "uint256",
          "name": "amount",
          "type": "uint256"
        },
        {
          "indexed": false,
          "internalType": "uint256",
          "name": "timestamp",
          "type": "uint256"
        }
      ],
      "name": "InvestmentMade",
      "type": "event"
    },
    {
      "anonymous": false,
      "inputs": [
        {
          "indexed": false,
          "internalType": "address",
          "name": "account",
          "type": "address"
        }
      ],
      "name": "Paused",
      "type": "event"
    },
    {
      "anonymous": false,
      "inputs": [
        {
          "indexed": false,
          "internalType": "uint256",
          "name": "amountOfInvestors",
          "type": "uint256"
        },
        {
          "indexed": false,
          "internalType": "uint256",
          "name": "timestamp",
          "type": "uint256"
        }
      ],
      "name": "RefundedInvestors",
      "type": "event"
    },
    {
      "anonymous": false,
      "inputs": [
        {
          "indexed": true,
          "internalType": "bytes32",
          "name": "role",
          "type": "bytes32"
        },
        {
          "indexed": true,
          "internalType": "bytes32",
          "name": "previousAdminRole",
          "type": "bytes32"
        },
        {
          "indexed": true,
          "internalType": "bytes32",
          "name": "newAdminRole",
          "type": "bytes32"
        }
      ],
      "name": "RoleAdminChanged",
      "type": "event"
    },
    {
      "anonymous": false,
      "inputs": [
        {
          "indexed": true,
          "internalType": "bytes32",
          "name": "role",
          "type": "bytes32"
        },
        {
          "indexed": true,
          "internalType": "address",
          "name": "account",
          "type": "address"
        },
        {
          "indexed": true,
          "internalType": "address",
          "name": "sender",
          "type": "address"
        }
      ],
      "name": "RoleGranted",
      "type": "event"
    },
    {
      "anonymous": false,
      "inputs": [
        {
          "indexed": true,
          "internalType": "bytes32",
          "name": "role",
          "type": "bytes32"
        },
        {
          "indexed": true,
          "internalType": "address",
          "name": "account",
          "type": "address"
        },
        {
          "indexed": true,
          "internalType": "address",
          "name": "sender",
          "type": "address"
        }
      ],
      "name": "RoleRevoked",
      "type": "event"
    },
    {
      "anonymous": false,
      "inputs": [
        {
          "indexed": false,
          "internalType": "address",
          "name": "account",
          "type": "address"
        }
      ],
      "name": "Unpaused",
      "type": "event"
    },
    {
      "anonymous": false,
      "inputs": [
        {
          "indexed": false,
          "internalType": "address",
          "name": "investor",
          "type": "address"
        },
        {
          "indexed": false,
          "internalType": "uint256",
          "name": "amount",
          "type": "uint256"
        },
        {
          "indexed": false,
          "internalType": "uint256",
          "name": "timestamp",
          "type": "uint256"
        }
      ],
      "name": "WithdrawalMade",
      "type": "event"
    },
    {
      "inputs": [],
      "name": "DEFAULT_ADMIN_ROLE",
      "outputs": [
        {
          "internalType": "bytes32",
          "name": "",
          "type": "bytes32"
        }
      ],
      "stateMutability": "view",
      "type": "function"
    },
    {
      "inputs": [],
      "name": "WHALE_INVESTOR_THRESHOLD",
      "outputs": [
        {
          "internalType": "uint256",
          "name": "",
          "type": "uint256"
        }
      ],
      "stateMutability": "view",
      "type": "function"
    },
    {
      "inputs": [],
      "name": "_minimumInvestmentAmount",
      "outputs": [
        {
          "internalType": "uint256",
          "name": "",
          "type": "uint256"
        }
      ],
      "stateMutability": "view",
      "type": "function"
    },
    {
      "inputs": [],
      "name": "getInvestorAmount",
      "outputs": [
        {
          "internalType": "uint256",
          "name": "",
          "type": "uint256"
        }
      ],
      "stateMutability": "view",
      "type": "function"
    },
    {
      "inputs": [
        {
          "internalType": "bytes32",
          "name": "role",
          "type": "bytes32"
        }
      ],
      "name": "getRoleAdmin",
      "outputs": [
        {
          "internalType": "bytes32",
          "name": "",
          "type": "bytes32"
        }
      ],
      "stateMutability": "view",
      "type": "function"
    },
    {
      "inputs": [
        {
          "internalType": "bytes32",
          "name": "role",
          "type": "bytes32"
        },
        {
          "internalType": "address",
          "name": "account",
          "type": "address"
        }
      ],
      "name": "grantRole",
      "outputs": [],
      "stateMutability": "nonpayable",
      "type": "function"
    },
    {
      "inputs": [
        {
          "internalType": "bytes32",
          "name": "role",
          "type": "bytes32"
        },
        {
          "internalType": "address",
          "name": "account",
          "type": "address"
        }
      ],
      "name": "hasRole",
      "outputs": [
        {
          "internalType": "bool",
          "name": "",
          "type": "bool"
        }
      ],
      "stateMutability": "view",
      "type": "function"
    },
    {
      "inputs": [
        {
          "internalType": "uint256",
          "name": "daysToAddToFundingPeriodLimit_",
          "type": "uint256"
        }
      ],
      "name": "incrementFundingPeriodLimit",
      "outputs": [],
      "stateMutability": "nonpayable",
      "type": "function"
    },
    {
      "inputs": [
        {
          "internalType": "uint256",
          "name": "amountToInvest_",
          "type": "uint256"
        }
      ],
      "name": "invest",
      "outputs": [],
      "stateMutability": "nonpayable",
      "type": "function"
    },
    {
      "inputs": [
        {
          "internalType": "address",
          "name": "",
          "type": "address"
        }
      ],
      "name": "investedAmountPerInvestor",
      "outputs": [
        {
          "internalType": "uint256",
          "name": "investedAmount",
          "type": "uint256"
        },
        {
          "internalType": "uint256",
          "name": "investorIndex",
          "type": "uint256"
        }
      ],
      "stateMutability": "view",
      "type": "function"
    },
    {
      "inputs": [],
      "name": "minimumInvestmentAmount",
      "outputs": [
        {
          "internalType": "uint256",
          "name": "",
          "type": "uint256"
        }
      ],
      "stateMutability": "view",
      "type": "function"
    },
    {
      "inputs": [],
      "name": "ogNFT",
      "outputs": [
        {
          "internalType": "contract InvestorNFT",
          "name": "",
          "type": "address"
        }
      ],
      "stateMutability": "view",
      "type": "function"
    },
    {
      "inputs": [],
      "name": "pause",
      "outputs": [],
      "stateMutability": "nonpayable",
      "type": "function"
    },
    {
      "inputs": [],
      "name": "paused",
      "outputs": [
        {
          "internalType": "bool",
          "name": "",
          "type": "bool"
        }
      ],
      "stateMutability": "view",
      "type": "function"
    },
    {
      "inputs": [
        {
          "internalType": "uint256",
          "name": "amountOfInvestorsToRefund_",
          "type": "uint256"
        }
      ],
      "name": "refundInvestors",
      "outputs": [],
      "stateMutability": "nonpayable",
      "type": "function"
    },
    {
      "inputs": [
        {
          "internalType": "bytes32",
          "name": "role",
          "type": "bytes32"
        },
        {
          "internalType": "address",
          "name": "callerConfirmation",
          "type": "address"
        }
      ],
      "name": "renounceRole",
      "outputs": [],
      "stateMutability": "nonpayable",
      "type": "function"
    },
    {
      "inputs": [
        {
          "internalType": "bytes32",
          "name": "role",
          "type": "bytes32"
        },
        {
          "internalType": "address",
          "name": "account",
          "type": "address"
        }
      ],
      "name": "revokeRole",
      "outputs": [],
      "stateMutability": "nonpayable",
      "type": "function"
    },
    {
      "inputs": [
        {
          "internalType": "uint256",
          "name": "minimumInvestmentAmount_",
          "type": "uint256"
        }
      ],
      "name": "setMinimumInvestmentAmount",
      "outputs": [],
      "stateMutability": "nonpayable",
      "type": "function"
    },
    {
      "inputs": [
        {
          "internalType": "address",
          "name": "ogNFTAddress_",
          "type": "address"
        }
      ],
      "name": "setOgNFTAddress",
      "outputs": [],
      "stateMutability": "nonpayable",
      "type": "function"
    },
    {
      "inputs": [
        {
          "internalType": "uint256",
          "name": "targetAmount_",
          "type": "uint256"
        }
      ],
      "name": "setTargetAmount",
      "outputs": [],
      "stateMutability": "nonpayable",
      "type": "function"
    },
    {
      "inputs": [
        {
          "internalType": "address",
          "name": "whaleNFTAddress_",
          "type": "address"
        }
      ],
      "name": "setWhaleNFTAddress",
      "outputs": [],
      "stateMutability": "nonpayable",
      "type": "function"
    },
    {
      "inputs": [
        {
          "internalType": "bytes4",
          "name": "interfaceId",
          "type": "bytes4"
        }
      ],
      "name": "supportsInterface",
      "outputs": [
        {
          "internalType": "bool",
          "name": "",
          "type": "bool"
        }
      ],
      "stateMutability": "view",
      "type": "function"
    },
    {
      "inputs": [],
      "name": "targetAmount",
      "outputs": [
        {
          "internalType": "uint256",
          "name": "",
          "type": "uint256"
        }
      ],
      "stateMutability": "view",
      "type": "function"
    },
    {
      "inputs": [],
      "name": "unpause",
      "outputs": [],
      "stateMutability": "nonpayable",
      "type": "function"
    },
    {
      "inputs": [],
      "name": "usdcToken",
      "outputs": [
        {
          "internalType": "contract IERC20",
          "name": "",
          "type": "address"
        }
      ],
      "stateMutability": "view",
      "type": "function"
    },
    {
      "inputs": [],
      "name": "whaleNFT",
      "outputs": [
        {
          "internalType": "contract InvestorNFT",
          "name": "",
          "type": "address"
        }
      ],
      "stateMutability": "view",
      "type": "function"
    },
    {
      "inputs": [],
      "name": "withdraw",
      "outputs": [],
      "stateMutability": "nonpayable",
      "type": "function"
    }
  ],
  "bytecode": "0x60a06040523480156200001157600080fd5b50604051620018fe380380620018fe8339810160408190526200003491620001cb565b6001805460ff1916815560025560008490036200006457604051630289423360e11b815260040160405180910390fd5b8260000362000086576040516358f90cb360e11b815260040160405180910390fd5b81600003620000a85760405163058dad3d60e51b815260040160405180910390fd5b6001600160a01b038116620000d0576040516365400b5960e01b815260040160405180910390fd5b620000dd6000336200011c565b5060058490556006839055620000f7826201518062000232565b6200010390426200024c565b6007556001600160a01b03166080525062000262915050565b6000828152602081815260408083206001600160a01b038516845290915281205460ff16620001c1576000838152602081815260408083206001600160a01b03861684529091529020805460ff19166001179055620001783390565b6001600160a01b0316826001600160a01b0316847f2f8788117e7eff1d82e926ec794901d17c78024a50270940304540a733656f0d60405160405180910390a4506001620001c5565b5060005b92915050565b60008060008060808587031215620001e257600080fd5b845160208601516040870151606088015192965090945092506001600160a01b03811681146200021157600080fd5b939692955090935050565b634e487b7160e01b600052601160045260246000fd5b8082028115828204841417620001c557620001c56200021c565b80820180821115620001c557620001c56200021c565b60805161164f620002af600039600081816101f0015281816104ed015281816105e6015281816107620152818161093101528181610a6201528181610dad01526111e6015261164f6000f3fe608060405234801561001057600080fd5b50600436106101a95760003560e01c80635c975abb116100f957806391d14854116100975780639bafe6c0116100715780639bafe6c0146103a35780639ee987b2146103ab578063a217fddf146103be578063d547741f146103c657600080fd5b806391d148541461037e578063953b8fb81461039157806396d4821f1461039a57600080fd5b8063803100c8116100d3578063803100c8146103165780638456cb59146103295780638766fbb11461033157806389c6a42c1461036d57600080fd5b80635c975abb146102f05780636618231f146102fb57806376ac85a81461030357600080fd5b80632afcf480116101665780633ccfd60b116101405780633ccfd60b146102ba5780633f4ba83a146102c25780634539a7e1146102ca5780634d55ed9b146102dd57600080fd5b80632afcf480146102815780632f2ff15d1461029457806336568abe146102a757600080fd5b806301ffc9a7146101ae5780630930618b146101d657806311eac855146101eb5780631553c7401461022a57806317b1090b1461023d578063248a9ca314610250575b600080fd5b6101c16101bc366004611485565b6103d9565b60405190151581526020015b60405180910390f35b6101e96101e43660046114b6565b610410565b005b6102127f000000000000000000000000000000000000000000000000000000000000000081565b6040516001600160a01b0390911681526020016101cd565b600454610212906001600160a01b031681565b600354610212906001600160a01b031681565b61027361025e3660046114b6565b60009081526020819052604090206001015490565b6040519081526020016101cd565b6101e961028f3660046114b6565b610463565b6101e96102a23660046114eb565b610867565b6101e96102b53660046114eb565b61088c565b6101e96108c4565b6101e9610b5e565b6101e96102d83660046114b6565b610b74565b6101e96102eb3660046114b6565b610ba6565b60015460ff166101c1565b600554610273565b6101e9610311366004611517565b610bd9565b6101e9610324366004611517565b610c2e565b6101e9610c83565b61035861033f366004611517565b6009602052600090815260409020805460019091015482565b604080519283526020830191909152016101cd565b61027369010f0cf064dd5920000081565b6101c161038c3660046114eb565b610c96565b61027360065481565b61027360055481565b600854610273565b6101e96103b93660046114b6565b610cbf565b610273600081565b6101e96103d43660046114eb565b610ea8565b60006001600160e01b03198216637965db0b60e01b148061040a57506301ffc9a760e01b6001600160e01b03198316145b92915050565b600061041b81610ecd565b8160000361043c5760405163058dad3d60e51b815260040160405180910390fd5b6104498262015180611548565b6007600082825461045a919061155f565b90915550505050565b60035481906001600160a01b0316158061048657506004546001600160a01b0316155b156104a457604051631c868b4f60e01b815260040160405180910390fd5b42600754116104d5576007546040516327bab4f360e01b81526004016104cc91815260200190565b60405180910390fd5b6040516370a0823160e01b81523060048201526000907f00000000000000000000000000000000000000000000000000000000000000006001600160a01b0316906370a0823190602401602060405180830381865afa15801561053c573d6000803e3d6000fd5b505050506040513d601f19601f820116820180604052508101906105609190611572565b600654909150610570838361155f565b111561059d576006546040516337427f7d60e11b81526104cc918391600401918252602082015260400190565b6005548210156105ce57600554604051631ead47ff60e01b81526104cc918491600401918252602082015260400190565b6040516370a0823160e01b81523360048201526000907f00000000000000000000000000000000000000000000000000000000000000006001600160a01b0316906370a0823190602401602060405180830381865afa158015610635573d6000803e3d6000fd5b505050506040513d601f19601f820116820180604052508101906106599190611572565b90508281101561068657604051630b39833f60e41b815260048101829052602481018490526044016104cc565b61068e610ed7565b610696610eff565b336000908152600960205260408120805490910361070c57600880546001818101835560008390527ff3f7a9fe364faab93b216da50a3214154f22a0a2b415b23a84c8169e8b636ee390910180546001600160a01b0319163317905590546106fe919061158b565b600182015561070c33610f25565b84816000016000828254610720919061155f565b9091555050805469010f0cf064dd59200000116107405761074033611001565b6040516323b872dd60e01b8152336004820152306024820152604481018690527f00000000000000000000000000000000000000000000000000000000000000006001600160a01b0316906323b872dd906064016020604051808303816000875af11580156107b3573d6000803e3d6000fd5b505050506040513d601f19601f820116820180604052508101906107d7919061159e565b6108175760405162461bcd60e51b8152602060048201526011602482015270125b9d995cdd1b595b9d0819985a5b1959607a1b60448201526064016104cc565b6040805133815260208101879052428183015290517f0a9bd546b0677820e552855be50bea4847cd782448e9f00d2543ceb3b91c2c5b9181900360600190a1506108616001600255565b50505050565b60008281526020819052604090206001015461088281610ecd565b61086183836110a8565b6001600160a01b03811633146108b55760405163334bd91960e11b815260040160405180910390fd5b6108bf828261113a565b505050565b6108cc6111a5565b336000908152600960209081526040808320815180830190925280548083526001909101549282019290925291819003610919576040516333be397f60e01b815260040160405180910390fd5b6040516370a0823160e01b81523060048201526000907f00000000000000000000000000000000000000000000000000000000000000006001600160a01b0316906370a0823190602401602060405180830381865afa158015610980573d6000803e3d6000fd5b505050506040513d601f19601f820116820180604052508101906109a49190611572565b9050818110156109d157604051630b39833f60e41b815260048101829052602481018390526044016104cc565b6109d9610ed7565b6109e1610eff565b33600090815260096020526040902080546001820154600880549091908110610a0c57610a0c6115c0565b6000918252602090912001546001600160a01b03163314610a2f57610a2f6115d6565b610a3c826001015461129a565b6000808355600183015560405163a9059cbb60e01b8152336004820152602481018290527f00000000000000000000000000000000000000000000000000000000000000006001600160a01b03169063a9059cbb906044016020604051808303816000875af1158015610ab3573d6000803e3d6000fd5b505050506040513d601f19601f82011682018060405250810190610ad7919061159e565b610b135760405162461bcd60e51b815260206004820152600d60248201526c1499599d5b990819985a5b1959609a1b60448201526064016104cc565b6040805133815260208101839052428183015290517f2d4d49c3e017b8235c908cbaa83a2431a08f3b950712696ece2088964fd399f09181900360600190a150506108bf6001600255565b6000610b6981610ecd565b610b7161139c565b50565b6000610b7f81610ecd565b81600003610ba057604051630289423360e11b815260040160405180910390fd5b50600555565b6000610bb181610ecd565b6006548211610bd3576040516332d58aff60e01b815260040160405180910390fd5b50600655565b6000610be481610ecd565b6001600160a01b038216610c0b57604051631c868b4f60e01b815260040160405180910390fd5b50600480546001600160a01b0319166001600160a01b0392909216919091179055565b6000610c3981610ecd565b6001600160a01b038216610c6057604051631c868b4f60e01b815260040160405180910390fd5b50600380546001600160a01b0319166001600160a01b0392909216919091179055565b6000610c8e81610ecd565b610b716113ee565b6000918252602082815260408084206001600160a01b0393909316845291905290205460ff1690565b80610cc86111a5565b80600003610ce9576040516342e0d85160e11b815260040160405180910390fd5b600854811115610d0c57604051633d49b89f60e01b815260040160405180910390fd5b610d14610ed7565b610d1c610eff565b600080835b8015610e5f576008600081548110610d3b57610d3b6115c0565b60009182526020808320909101546001600160a01b031680835260099091526040822080548382556001820184905591955090935090610d7a9061129a565b81610d84816115ec565b60405163a9059cbb60e01b81526001600160a01b038781166004830152602482018790529194507f0000000000000000000000000000000000000000000000000000000000000000909116915063a9059cbb906044016020604051808303816000875af1158015610df9573d6000803e3d6000fd5b505050506040513d601f19601f82011682018060405250810190610e1d919061159e565b610e595760405162461bcd60e51b815260206004820152600d60248201526c1499599d5b990819985a5b1959609a1b60448201526064016104cc565b50610d21565b604080518681524260208201527f965f783d8e21d3e7ce50257c7e66a293fa0f50b296dad79a71d53a9bfb809069910160405180910390a1505050610ea46001600255565b5050565b600082815260208190526040902060010154610ec381610ecd565b610861838361113a565b610b718133611429565b6002805403610ef957604051633ee5aeb560e01b815260040160405180910390fd5b60028055565b60015460ff1615610f235760405163d93c066560e01b815260040160405180910390fd5b565b600480546040516370a0823160e01b81526001600160a01b03848116938201939093529116906370a0823190602401602060405180830381865afa158015610f71573d6000803e3d6000fd5b505050506040513d601f19601f82011682018060405250810190610f959190611572565b600003610b7157600480546040516340d097c360e01b81526001600160a01b03848116938201939093529116906340d097c3906024015b600060405180830381600087803b158015610fe657600080fd5b505af1158015610ffa573d6000803e3d6000fd5b5050505050565b6003546040516370a0823160e01b81526001600160a01b038381166004830152909116906370a0823190602401602060405180830381865afa15801561104b573d6000803e3d6000fd5b505050506040513d601f19601f8201168201806040525081019061106f9190611572565b600003610b71576003546040516340d097c360e01b81526001600160a01b038381166004830152909116906340d097c390602401610fcc565b60006110b48383610c96565b611132576000838152602081815260408083206001600160a01b03861684529091529020805460ff191660011790556110ea3390565b6001600160a01b0316826001600160a01b0316847f2f8788117e7eff1d82e926ec794901d17c78024a50270940304540a733656f0d60405160405180910390a450600161040a565b50600061040a565b60006111468383610c96565b15611132576000838152602081815260408083206001600160a01b0386168085529252808320805460ff1916905551339286917ff6391f5c32d9c69d2a47ea670b442974b53935d1edc7fd64eb21e047a839171b9190a450600161040a565b6007544210156111ce576007546040516309ec001360e11b81526004016104cc91815260200190565b6006546040516370a0823160e01b81523060048201527f00000000000000000000000000000000000000000000000000000000000000006001600160a01b0316906370a0823190602401602060405180830381865afa158015611235573d6000803e3d6000fd5b505050506040513d601f19601f820116820180604052508101906112599190611572565b1061127757604051631780354d60e21b815260040160405180910390fd5b600854600003610f23576040516342e0d85160e11b815260040160405180910390fd5b6008546000906112ac9060019061158b565b9050600060096000600884815481106112c7576112c76115c0565b60009182526020808320909101546001600160a01b0316835282019290925260400190206001810184905560088054919250908390811061130a5761130a6115c0565b600091825260209091200154600880546001600160a01b039092169185908110611336576113366115c0565b9060005260206000200160006101000a8154816001600160a01b0302191690836001600160a01b03160217905550600880548061137557611375611603565b600082815260209020810160001990810180546001600160a01b0319169055019055505050565b6113a4611462565b6001805460ff191690557f5db9ee0a495bf2e6ff9c91a7834c1ba4fdd244a5e8aa4e537bd38aeae4b073aa335b6040516001600160a01b03909116815260200160405180910390a1565b6113f6610eff565b6001805460ff1916811790557f62e78cea01bee320cd4e420270b5ea74000d11b0c9f74754ebdbfc544b05a258336113d1565b6114338282610c96565b610ea45760405163e2517d3f60e01b81526001600160a01b0382166004820152602481018390526044016104cc565b60015460ff16610f2357604051638dfc202b60e01b815260040160405180910390fd5b60006020828403121561149757600080fd5b81356001600160e01b0319811681146114af57600080fd5b9392505050565b6000602082840312156114c857600080fd5b5035919050565b80356001600160a01b03811681146114e657600080fd5b919050565b600080604083850312156114fe57600080fd5b8235915061150e602084016114cf565b90509250929050565b60006020828403121561152957600080fd5b6114af826114cf565b634e487b7160e01b600052601160045260246000fd5b808202811582820484141761040a5761040a611532565b8082018082111561040a5761040a611532565b60006020828403121561158457600080fd5b5051919050565b8181038181111561040a5761040a611532565b6000602082840312156115b057600080fd5b815180151581146114af57600080fd5b634e487b7160e01b600052603260045260246000fd5b634e487b7160e01b600052600160045260246000fd5b6000816115fb576115fb611532565b506000190190565b634e487b7160e01b600052603160045260246000fdfea2646970667358221220cafea179636b93f4f8e11a08d3519e5b178ad46454b364449029c157cacac78664736f6c63430008180033",
  "linkReferences": {},
  "deployedLinkReferences": {}
}