{
  "_format": "hh-sol-artifact-1",
  "contractName": "BondToken",
  "sourceName": "contracts/BondToken.sol",
  "abi": [
    {
      "inputs": [
        {
          "internalType": "string",
          "name": "name",
          "type": "string"
        },
        {
          "internalType": "string",
          "name": "symbol",
          "type": "string"
        }
      ],
      "stateMutability": "nonpayable",
      "type": "constructor"
    },
    {
      "inputs": [],
      "name": "AccessControlBadConfirmation",
      "type": "error"
    },
    {
      "inputs": [
        {
          "internalType": "address",
          "name": "account",
          "type": "address"
        },
        {
          "internalType": "bytes32",
          "name": "neededRole",
          "type": "bytes32"
        }
      ],
      "name": "AccessControlUnauthorizedAccount",
      "type": "error"
    },
    {
      "inputs": [
        {
          "internalType": "address",
          "name": "spender",
          "type": "address"
        },
        {
          "internalType": "uint256",
          "name": "allowance",
          "type": "uint256"
        },
        {
          "internalType": "uint256",
          "name": "needed",
          "type": "uint256"
        }
      ],
      "name": "ERC20InsufficientAllowance",
      "type": "error"
    },
    {
      "inputs": [
        {
          "internalType": "address",
          "name": "sender",
          "type": "address"
        },
        {
          "internalType": "uint256",
          "name": "balance",
          "type": "uint256"
        },
        {
          "internalType": "uint256",
          "name": "needed",
          "type": "uint256"
        }
      ],
      "name": "ERC20InsufficientBalance",
      "type": "error"
    },
    {
      "inputs": [
        {
          "internalType": "address",
          "name": "approver",
          "type": "address"
        }
      ],
      "name": "ERC20InvalidApprover",
      "type": "error"
    },
    {
      "inputs": [
        {
          "internalType": "address",
          "name": "receiver",
          "type": "address"
        }
      ],
      "name": "ERC20InvalidReceiver",
      "type": "error"
    },
    {
      "inputs": [
        {
          "internalType": "address",
          "name": "sender",
          "type": "address"
        }
      ],
      "name": "ERC20InvalidSender",
      "type": "error"
    },
    {
      "inputs": [
        {
          "internalType": "address",
          "name": "spender",
          "type": "address"
        }
      ],
      "name": "ERC20InvalidSpender",
      "type": "error"
    },
    {
      "anonymous": false,
      "inputs": [
        {
          "indexed": true,
          "internalType": "address",
          "name": "owner",
          "type": "address"
        },
        {
          "indexed": true,
          "internalType": "address",
          "name": "spender",
          "type": "address"
        },
        {
          "indexed": false,
          "internalType": "uint256",
          "name": "value",
          "type": "uint256"
        }
      ],
      "name": "Approval",
      "type": "event"
    },
    {
      "anonymous": false,
      "inputs": [
        {
          "indexed": true,
          "internalType": "bytes32",
          "name": "role",
          "type": "bytes32"
        },
        {
          "indexed": true,
          "internalType": "bytes32",
          "name": "previousAdminRole",
          "type": "bytes32"
        },
        {
          "indexed": true,
          "internalType": "bytes32",
          "name": "newAdminRole",
          "type": "bytes32"
        }
      ],
      "name": "RoleAdminChanged",
      "type": "event"
    },
    {
      "anonymous": false,
      "inputs": [
        {
          "indexed": true,
          "internalType": "bytes32",
          "name": "role",
          "type": "bytes32"
        },
        {
          "indexed": true,
          "internalType": "address",
          "name": "account",
          "type": "address"
        },
        {
          "indexed": true,
          "internalType": "address",
          "name": "sender",
          "type": "address"
        }
      ],
      "name": "RoleGranted",
      "type": "event"
    },
    {
      "anonymous": false,
      "inputs": [
        {
          "indexed": true,
          "internalType": "bytes32",
          "name": "role",
          "type": "bytes32"
        },
        {
          "indexed": true,
          "internalType": "address",
          "name": "account",
          "type": "address"
        },
        {
          "indexed": true,
          "internalType": "address",
          "name": "sender",
          "type": "address"
        }
      ],
      "name": "RoleRevoked",
      "type": "event"
    },
    {
      "anonymous": false,
      "inputs": [
        {
          "indexed": true,
          "internalType": "address",
          "name": "from",
          "type": "address"
        },
        {
          "indexed": true,
          "internalType": "address",
          "name": "to",
          "type": "address"
        },
        {
          "indexed": false,
          "internalType": "uint256",
          "name": "value",
          "type": "uint256"
        }
      ],
      "name": "Transfer",
      "type": "event"
    },
    {
      "inputs": [],
      "name": "DEFAULT_ADMIN_ROLE",
      "outputs": [
        {
          "internalType": "bytes32",
          "name": "",
          "type": "bytes32"
        }
      ],
      "stateMutability": "view",
      "type": "function"
    },
    {
      "inputs": [],
      "name": "FACE_VALUE",
      "outputs": [
        {
          "internalType": "uint256",
          "name": "",
          "type": "uint256"
        }
      ],
      "stateMutability": "view",
      "type": "function"
    },
    {
      "inputs": [],
      "name": "FREEZER_ROLE",
      "outputs": [
        {
          "internalType": "bytes32",
          "name": "",
          "type": "bytes32"
        }
      ],
      "stateMutability": "view",
      "type": "function"
    },
    {
      "inputs": [],
      "name": "MINTER_ROLE",
      "outputs": [
        {
          "internalType": "bytes32",
          "name": "",
          "type": "bytes32"
        }
      ],
      "stateMutability": "view",
      "type": "function"
    },
    {
      "inputs": [],
      "name": "PAUSER_ROLE",
      "outputs": [
        {
          "internalType": "bytes32",
          "name": "",
          "type": "bytes32"
        }
      ],
      "stateMutability": "view",
      "type": "function"
    },
    {
      "inputs": [
        {
          "internalType": "address",
          "name": "minter",
          "type": "address"
        }
      ],
      "name": "addMinter",
      "outputs": [],
      "stateMutability": "nonpayable",
      "type": "function"
    },
    {
      "inputs": [
        {
          "internalType": "address",
          "name": "owner",
          "type": "address"
        },
        {
          "internalType": "address",
          "name": "spender",
          "type": "address"
        }
      ],
      "name": "allowance",
      "outputs": [
        {
          "internalType": "uint256",
          "name": "",
          "type": "uint256"
        }
      ],
      "stateMutability": "view",
      "type": "function"
    },
    {
      "inputs": [
        {
          "internalType": "address",
          "name": "spender",
          "type": "address"
        },
        {
          "internalType": "uint256",
          "name": "value",
          "type": "uint256"
        }
      ],
      "name": "approve",
      "outputs": [
        {
          "internalType": "bool",
          "name": "",
          "type": "bool"
        }
      ],
      "stateMutability": "nonpayable",
      "type": "function"
    },
    {
      "inputs": [
        {
          "internalType": "address",
          "name": "account",
          "type": "address"
        }
      ],
      "name": "balanceOf",
      "outputs": [
        {
          "internalType": "uint256",
          "name": "",
          "type": "uint256"
        }
      ],
      "stateMutability": "view",
      "type": "function"
    },
    {
      "inputs": [
        {
          "internalType": "uint256",
          "name": "amount",
          "type": "uint256"
        }
      ],
      "name": "burn",
      "outputs": [],
      "stateMutability": "nonpayable",
      "type": "function"
    },
    {
      "inputs": [
        {
          "internalType": "address",
          "name": "account",
          "type": "address"
        },
        {
          "internalType": "uint256",
          "name": "amount",
          "type": "uint256"
        }
      ],
      "name": "burnFrom",
      "outputs": [],
      "stateMutability": "nonpayable",
      "type": "function"
    },
    {
      "inputs": [],
      "name": "decimals",
      "outputs": [
        {
          "internalType": "uint8",
          "name": "",
          "type": "uint8"
        }
      ],
      "stateMutability": "view",
      "type": "function"
    },
    {
      "inputs": [
        {
          "internalType": "address",
          "name": "from",
          "type": "address"
        },
        {
          "internalType": "address",
          "name": "to",
          "type": "address"
        },
        {
          "internalType": "uint256",
          "name": "amount",
          "type": "uint256"
        }
      ],
      "name": "forceTransfer",
      "outputs": [],
      "stateMutability": "nonpayable",
      "type": "function"
    },
    {
      "inputs": [
        {
          "internalType": "address",
          "name": "account",
          "type": "address"
        }
      ],
      "name": "freezeAccount",
      "outputs": [],
      "stateMutability": "nonpayable",
      "type": "function"
    },
    {
      "inputs": [
        {
          "internalType": "bytes32",
          "name": "role",
          "type": "bytes32"
        }
      ],
      "name": "getRoleAdmin",
      "outputs": [
        {
          "internalType": "bytes32",
          "name": "",
          "type": "bytes32"
        }
      ],
      "stateMutability": "view",
      "type": "function"
    },
    {
      "inputs": [
        {
          "internalType": "bytes32",
          "name": "role",
          "type": "bytes32"
        },
        {
          "internalType": "address",
          "name": "account",
          "type": "address"
        }
      ],
      "name": "grantRole",
      "outputs": [],
      "stateMutability": "nonpayable",
      "type": "function"
    },
    {
      "inputs": [
        {
          "internalType": "bytes32",
          "name": "role",
          "type": "bytes32"
        },
        {
          "internalType": "address",
          "name": "account",
          "type": "address"
        }
      ],
      "name": "hasRole",
      "outputs": [
        {
          "internalType": "bool",
          "name": "",
          "type": "bool"
        }
      ],
      "stateMutability": "view",
      "type": "function"
    },
    {
      "inputs": [
        {
          "internalType": "address",
          "name": "to",
          "type": "address"
        },
        {
          "internalType": "uint256",
          "name": "amount",
          "type": "uint256"
        }
      ],
      "name": "mint",
      "outputs": [],
      "stateMutability": "nonpayable",
      "type": "function"
    },
    {
      "inputs": [],
      "name": "name",
      "outputs": [
        {
          "internalType": "string",
          "name": "",
          "type": "string"
        }
      ],
      "stateMutability": "view",
      "type": "function"
    },
    {
      "inputs": [],
      "name": "pause",
      "outputs": [],
      "stateMutability": "nonpayable",
      "type": "function"
    },
    {
      "inputs": [
        {
          "internalType": "bytes32",
          "name": "role",
          "type": "bytes32"
        },
        {
          "internalType": "address",
          "name": "callerConfirmation",
          "type": "address"
        }
      ],
      "name": "renounceRole",
      "outputs": [],
      "stateMutability": "nonpayable",
      "type": "function"
    },
    {
      "inputs": [
        {
          "internalType": "bytes32",
          "name": "role",
          "type": "bytes32"
        },
        {
          "internalType": "address",
          "name": "account",
          "type": "address"
        }
      ],
      "name": "revokeRole",
      "outputs": [],
      "stateMutability": "nonpayable",
      "type": "function"
    },
    {
      "inputs": [
        {
          "internalType": "bytes4",
          "name": "interfaceId",
          "type": "bytes4"
        }
      ],
      "name": "supportsInterface",
      "outputs": [
        {
          "internalType": "bool",
          "name": "",
          "type": "bool"
        }
      ],
      "stateMutability": "view",
      "type": "function"
    },
    {
      "inputs": [],
      "name": "symbol",
      "outputs": [
        {
          "internalType": "string",
          "name": "",
          "type": "string"
        }
      ],
      "stateMutability": "view",
      "type": "function"
    },
    {
      "inputs": [],
      "name": "totalSupply",
      "outputs": [
        {
          "internalType": "uint256",
          "name": "",
          "type": "uint256"
        }
      ],
      "stateMutability": "view",
      "type": "function"
    },
    {
      "inputs": [
        {
          "internalType": "address",
          "name": "to",
          "type": "address"
        },
        {
          "internalType": "uint256",
          "name": "amount",
          "type": "uint256"
        }
      ],
      "name": "transfer",
      "outputs": [
        {
          "internalType": "bool",
          "name": "",
          "type": "bool"
        }
      ],
      "stateMutability": "nonpayable",
      "type": "function"
    },
    {
      "inputs": [
        {
          "internalType": "address",
          "name": "from",
          "type": "address"
        },
        {
          "internalType": "address",
          "name": "to",
          "type": "address"
        },
        {
          "internalType": "uint256",
          "name": "amount",
          "type": "uint256"
        }
      ],
      "name": "transferFrom",
      "outputs": [
        {
          "internalType": "bool",
          "name": "",
          "type": "bool"
        }
      ],
      "stateMutability": "nonpayable",
      "type": "function"
    },
    {
      "inputs": [
        {
          "internalType": "address",
          "name": "account",
          "type": "address"
        }
      ],
      "name": "unfreezeAccount",
      "outputs": [],
      "stateMutability": "nonpayable",
      "type": "function"
    },
    {
      "inputs": [],
      "name": "unpause",
      "outputs": [],
      "stateMutability": "nonpayable",
      "type": "function"
    }
  ],
  "bytecode": "0x60806040523480156200001157600080fd5b506040516200169a3803806200169a833981016040819052620000349162000270565b818160036200004483826200036b565b5060046200005382826200036b565b506200006591506000905033620000f5565b50620000927f9f2df0fed2c77648de5860a4cc508cd0818c85b8b8a1ab4ceeef8d981c8956a633620000f5565b50620000bf7f65d7a28e3265b37a6474929f336521b332c1681b933f6cb9f3376673440d862a33620000f5565b50620000ec7f92de27771f92d6942691d73358b3a4673e4880de8356f8f2cf452be87e02d36333620000f5565b50505062000437565b60008281526005602090815260408083206001600160a01b038516845290915281205460ff166200019e5760008381526005602090815260408083206001600160a01b03861684529091529020805460ff19166001179055620001553390565b6001600160a01b0316826001600160a01b0316847f2f8788117e7eff1d82e926ec794901d17c78024a50270940304540a733656f0d60405160405180910390a4506001620001a2565b5060005b92915050565b634e487b7160e01b600052604160045260246000fd5b600082601f830112620001d057600080fd5b81516001600160401b0380821115620001ed57620001ed620001a8565b604051601f8301601f19908116603f01168101908282118183101715620002185762000218620001a8565b81604052838152602092508660208588010111156200023657600080fd5b600091505b838210156200025a57858201830151818301840152908201906200023b565b6000602085830101528094505050505092915050565b600080604083850312156200028457600080fd5b82516001600160401b03808211156200029c57600080fd5b620002aa86838701620001be565b93506020850151915080821115620002c157600080fd5b50620002d085828601620001be565b9150509250929050565b600181811c90821680620002ef57607f821691505b6020821081036200031057634e487b7160e01b600052602260045260246000fd5b50919050565b601f82111562000366576000816000526020600020601f850160051c81016020861015620003415750805b601f850160051c820191505b8181101562000362578281556001016200034d565b5050505b505050565b81516001600160401b03811115620003875762000387620001a8565b6200039f81620003988454620002da565b8462000316565b602080601f831160018114620003d75760008415620003be5750858301515b600019600386901b1c1916600185901b17855562000362565b600085815260208120601f198616915b828110156200040857888601518255948401946001909101908401620003e7565b5085821015620004275787850151600019600388901b60f8161c191681555b5050505050600190811b01905550565b61125380620004476000396000f3fe608060405234801561001057600080fd5b50600436106101cf5760003560e01c806349bd9e8211610104578063983b2d56116100a2578063d547741f11610071578063d547741f146103e6578063dd62ed3e146103f9578063e63ab1e914610432578063f26c159f1461045957600080fd5b8063983b2d5614610391578063a217fddf146103a4578063a9059cbb146103ac578063d5391393146103bf57600080fd5b806379cc6790116100de57806379cc67901461035b5780638456cb591461036e57806391d148541461037657806395d89b411461038957600080fd5b806349bd9e821461030f57806370a082311461031f578063788649ea1461034857600080fd5b80632f2ff15d1161017157806336568abe1161014b57806336568abe146102ce5780633f4ba83a146102e157806340c10f19146102e957806342966c68146102fc57600080fd5b80632f2ff15d14610297578063313ce567146102ac57806333bebb77146102bb57600080fd5b8063095ea7b3116101ad578063095ea7b31461024657806318160ddd1461025957806323b872dd14610261578063248a9ca31461027457600080fd5b806301ffc9a7146101d457806306a85f0f146101fc57806306fdde0314610231575b600080fd5b6101e76101e2366004610f7b565b61046c565b60405190151581526020015b60405180910390f35b6102237f92de27771f92d6942691d73358b3a4673e4880de8356f8f2cf452be87e02d36381565b6040519081526020016101f3565b6102396104a3565b6040516101f39190610fa5565b6101e7610254366004611010565b610535565b600254610223565b6101e761026f36600461103a565b61054d565b610223610282366004611076565b60009081526005602052604090206001015490565b6102aa6102a536600461108f565b6105ed565b005b604051601281526020016101f3565b6102aa6102c936600461103a565b610618565b6102aa6102dc36600461108f565b6106af565b6102aa6106e7565b6102aa6102f7366004611010565b61071e565b6102aa61030a366004611076565b6107ec565b61022368056bc75e2d6310000081565b61022361032d3660046110bb565b6001600160a01b031660009081526020819052604090205490565b6102aa6103563660046110bb565b61084c565b6102aa610369366004611010565b610898565b6102aa61090d565b6101e761038436600461108f565b610947565b610239610972565b6102aa61039f3660046110bb565b610981565b610223600081565b6101e76103ba366004611010565b6109b6565b6102237f9f2df0fed2c77648de5860a4cc508cd0818c85b8b8a1ab4ceeef8d981c8956a681565b6102aa6103f436600461108f565b610a42565b6102236104073660046110d6565b6001600160a01b03918216600090815260016020908152604080832093909416825291909152205490565b6102237f65d7a28e3265b37a6474929f336521b332c1681b933f6cb9f3376673440d862a81565b6102aa6104673660046110bb565b610a67565b60006001600160e01b03198216637965db0b60e01b148061049d57506301ffc9a760e01b6001600160e01b03198316145b92915050565b6060600380546104b290611100565b80601f01602080910402602001604051908101604052809291908181526020018280546104de90611100565b801561052b5780601f106105005761010080835404028352916020019161052b565b820191906000526020600020905b81548152906001019060200180831161050e57829003601f168201915b5050505050905090565b600033610543818585610ab6565b5060019392505050565b60075460009060ff161561057c5760405162461bcd60e51b81526004016105739061113a565b60405180910390fd5b6001600160a01b03841660009081526006602052604090205460ff161580156105be57506001600160a01b03831660009081526006602052604090205460ff16155b6105da5760405162461bcd60e51b815260040161057390611180565b6105e5848484610ac3565b949350505050565b60008281526005602052604090206001015461060881610ae7565b6106128383610af1565b50505050565b600061062381610ae7565b60075460ff16156106465760405162461bcd60e51b81526004016105739061113a565b6001600160a01b03841660009081526006602052604090205460ff1615801561068857506001600160a01b03831660009081526006602052604090205460ff16155b6106a45760405162461bcd60e51b815260040161057390611180565b610612848484610b85565b6001600160a01b03811633146106d85760405163334bd91960e11b815260040160405180910390fd5b6106e28282610be4565b505050565b7f65d7a28e3265b37a6474929f336521b332c1681b933f6cb9f3376673440d862a61071181610ae7565b506007805460ff19169055565b7f9f2df0fed2c77648de5860a4cc508cd0818c85b8b8a1ab4ceeef8d981c8956a661074881610ae7565b60075460ff16156107a95760405162461bcd60e51b815260206004820152602560248201527f426f6e64546f6b656e3a20746f6b656e206d696e74696e67207768696c652070604482015264185d5cd95960da1b6064820152608401610573565b6001600160a01b03831660009081526006602052604090205460ff16156107e25760405162461bcd60e51b815260040161057390611180565b6106e28383610c51565b60075460ff161561080f5760405162461bcd60e51b8152600401610573906111b7565b3360009081526006602052604090205460ff161561083f5760405162461bcd60e51b815260040161057390611180565b6108493382610c87565b50565b7f92de27771f92d6942691d73358b3a4673e4880de8356f8f2cf452be87e02d36361087681610ae7565b506001600160a01b03166000908152600660205260409020805460ff19169055565b60075460ff16156108bb5760405162461bcd60e51b8152600401610573906111b7565b6001600160a01b03821660009081526006602052604090205460ff16156108f45760405162461bcd60e51b815260040161057390611180565b6108ff823383610cbd565b6109098282610c87565b5050565b7f65d7a28e3265b37a6474929f336521b332c1681b933f6cb9f3376673440d862a61093781610ae7565b506007805460ff19166001179055565b60009182526005602090815260408084206001600160a01b0393909316845291905290205460ff1690565b6060600480546104b290611100565b600061098c81610ae7565b6109097f9f2df0fed2c77648de5860a4cc508cd0818c85b8b8a1ab4ceeef8d981c8956a6836105ed565b60075460009060ff16156109dc5760405162461bcd60e51b81526004016105739061113a565b3360009081526006602052604090205460ff16158015610a1557506001600160a01b03831660009081526006602052604090205460ff16155b610a315760405162461bcd60e51b815260040161057390611180565b610a3b8383610d35565b9392505050565b600082815260056020526040902060010154610a5d81610ae7565b6106128383610be4565b7f92de27771f92d6942691d73358b3a4673e4880de8356f8f2cf452be87e02d363610a9181610ae7565b506001600160a01b03166000908152600660205260409020805460ff19166001179055565b6106e28383836001610d43565b600033610ad1858285610cbd565b610adc858585610b85565b506001949350505050565b6108498133610e18565b6000610afd8383610947565b610b7d5760008381526005602090815260408083206001600160a01b03861684529091529020805460ff19166001179055610b353390565b6001600160a01b0316826001600160a01b0316847f2f8788117e7eff1d82e926ec794901d17c78024a50270940304540a733656f0d60405160405180910390a450600161049d565b50600061049d565b6001600160a01b038316610baf57604051634b637e8f60e11b815260006004820152602401610573565b6001600160a01b038216610bd95760405163ec442f0560e01b815260006004820152602401610573565b6106e2838383610e51565b6000610bf08383610947565b15610b7d5760008381526005602090815260408083206001600160a01b0386168085529252808320805460ff1916905551339286917ff6391f5c32d9c69d2a47ea670b442974b53935d1edc7fd64eb21e047a839171b9190a450600161049d565b6001600160a01b038216610c7b5760405163ec442f0560e01b815260006004820152602401610573565b61090960008383610e51565b6001600160a01b038216610cb157604051634b637e8f60e11b815260006004820152602401610573565b61090982600083610e51565b6001600160a01b0383811660009081526001602090815260408083209386168352929052205460001981146106125781811015610d2657604051637dc7a0d960e11b81526001600160a01b03841660048201526024810182905260448101839052606401610573565b61061284848484036000610d43565b600033610543818585610b85565b6001600160a01b038416610d6d5760405163e602df0560e01b815260006004820152602401610573565b6001600160a01b038316610d9757604051634a1406b160e11b815260006004820152602401610573565b6001600160a01b038085166000908152600160209081526040808320938716835292905220829055801561061257826001600160a01b0316846001600160a01b03167f8c5be1e5ebec7d5bd14f71427d1e84f3dd0314c0f7b2291e5b200ac8c7c3b92584604051610e0a91815260200190565b60405180910390a350505050565b610e228282610947565b6109095760405163e2517d3f60e01b81526001600160a01b038216600482015260248101839052604401610573565b6001600160a01b038316610e7c578060026000828254610e7191906111fc565b90915550610eee9050565b6001600160a01b03831660009081526020819052604090205481811015610ecf5760405163391434e360e21b81526001600160a01b03851660048201526024810182905260448101839052606401610573565b6001600160a01b03841660009081526020819052604090209082900390555b6001600160a01b038216610f0a57600280548290039055610f29565b6001600160a01b03821660009081526020819052604090208054820190555b816001600160a01b0316836001600160a01b03167fddf252ad1be2c89b69c2b068fc378daa952ba7f163c4a11628f55a4df523b3ef83604051610f6e91815260200190565b60405180910390a3505050565b600060208284031215610f8d57600080fd5b81356001600160e01b031981168114610a3b57600080fd5b60006020808352835180602085015260005b81811015610fd357858101830151858201604001528201610fb7565b506000604082860101526040601f19601f8301168501019250505092915050565b80356001600160a01b038116811461100b57600080fd5b919050565b6000806040838503121561102357600080fd5b61102c83610ff4565b946020939093013593505050565b60008060006060848603121561104f57600080fd5b61105884610ff4565b925061106660208501610ff4565b9150604084013590509250925092565b60006020828403121561108857600080fd5b5035919050565b600080604083850312156110a257600080fd5b823591506110b260208401610ff4565b90509250929050565b6000602082840312156110cd57600080fd5b610a3b82610ff4565b600080604083850312156110e957600080fd5b6110f283610ff4565b91506110b260208401610ff4565b600181811c9082168061111457607f821691505b60208210810361113457634e487b7160e01b600052602260045260246000fd5b50919050565b60208082526026908201527f426f6e64546f6b656e3a20746f6b656e207472616e73666572207768696c65206040820152651c185d5cd95960d21b606082015260800190565b6020808252601c908201527f426f6e64546f6b656e3a206163636f756e742069732066726f7a656e00000000604082015260600190565b60208082526025908201527f426f6e64546f6b656e3a20746f6b656e206275726e696e67207768696c652070604082015264185d5cd95960da1b606082015260800190565b8082018082111561049d57634e487b7160e01b600052601160045260246000fdfea264697066735822122065a9e3823d81bc79bfc76d958fb387ce0765c0143ca7f98de6da245a8853ec2664736f6c63430008180033",
  "linkReferences": {},
  "deployedLinkReferences": {}
}