{
  "_format": "hh-sol-artifact-1",
  "contractName": "Funding",
  "sourceName": "contracts/Funding.sol",
  "abi": [
    {
      "inputs": [
        {
          "internalType": "uint256",
          "name": "minimumInvestmentAmount_",
          "type": "uint256"
        },
        {
          "internalType": "uint256",
          "name": "targetAmount_",
          "type": "uint256"
        },
        {
          "internalType": "uint256",
          "name": "fundingPeriodLimitInDays_",
          "type": "uint256"
        },
        {
          "internalType": "address",
          "name": "usdcTokenAddress_",
          "type": "address"
        }
      ],
      "stateMutability": "nonpayable",
      "type": "constructor"
    },
    {
      "inputs": [],
      "name": "AccessControlBadConfirmation",
      "type": "error"
    },
    {
      "inputs": [
        {
          "internalType": "address",
          "name": "account",
          "type": "address"
        },
        {
          "internalType": "bytes32",
          "name": "neededRole",
          "type": "bytes32"
        }
      ],
      "name": "AccessControlUnauthorizedAccount",
      "type": "error"
    },
    {
      "inputs": [],
      "name": "EnforcedPause",
      "type": "error"
    },
    {
      "inputs": [],
      "name": "ExpectedPause",
      "type": "error"
    },
    {
      "inputs": [
        {
          "internalType": "uint256",
          "name": "invested",
          "type": "uint256"
        },
        {
          "internalType": "uint256",
          "name": "minimum",
          "type": "uint256"
        }
      ],
      "name": "FundingBelowMinimum",
      "type": "error"
    },
    {
      "inputs": [],
      "name": "FundingCannotBeZeroAddress",
      "type": "error"
    },
    {
      "inputs": [
        {
          "internalType": "uint256",
          "name": "currentBalance",
          "type": "uint256"
        },
        {
          "internalType": "uint256",
          "name": "target",
          "type": "uint256"
        }
      ],
      "name": "FundingExceedsTargetAmount",
      "type": "error"
    },
    {
      "inputs": [
        {
          "internalType": "uint256",
          "name": "available",
          "type": "uint256"
        },
        {
          "internalType": "uint256",
          "name": "required",
          "type": "uint256"
        }
      ],
      "name": "FundingInsufficientBalance",
      "type": "error"
    },
    {
      "inputs": [],
      "name": "FundingInvestorsAmountToRefundTooBig",
      "type": "error"
    },
    {
      "inputs": [],
      "name": "FundingMinimumCannotBeZero",
      "type": "error"
    },
    {
      "inputs": [],
      "name": "FundingNoInvestorsToRefund",
      "type": "error"
    },
    {
      "inputs": [],
      "name": "FundingNoRegisteredFunds",
      "type": "error"
    },
    {
      "inputs": [],
      "name": "FundingPeriodCannotBeZero",
      "type": "error"
    },
    {
      "inputs": [
        {
          "internalType": "uint256",
          "name": "finishedAt",
          "type": "uint256"
        }
      ],
      "name": "FundingPeriodFinished",
      "type": "error"
    },
    {
      "inputs": [
        {
          "internalType": "uint256",
          "name": "finishesAt",
          "type": "uint256"
        }
      ],
      "name": "FundingPeriodOngoing",
      "type": "error"
    },
    {
      "inputs": [],
      "name": "FundingTargetAmountReached",
      "type": "error"
    },
    {
      "inputs": [],
      "name": "FundingTargetCannotBeZero",
      "type": "error"
    },
    {
      "inputs": [],
      "name": "FundingTargetTooSmall",
      "type": "error"
    },
    {
      "inputs": [],
      "name": "InvestorNFTCannotBeZeroAddress",
      "type": "error"
    },
    {
      "inputs": [],
      "name": "ReentrancyGuardReentrantCall",
      "type": "error"
    },
    {
      "anonymous": false,
      "inputs": [
        {
          "indexed": false,
          "internalType": "address",
          "name": "investor",
          "type": "address"
        },
        {
          "indexed": false,
          "internalType": "uint256",
          "name": "amount",
          "type": "uint256"
        },
        {
          "indexed": false,
          "internalType": "uint256",
          "name": "timestamp",
          "type": "uint256"
        }
      ],
      "name": "InvestmentMade",
      "type": "event"
    },
    {
      "anonymous": false,
      "inputs": [
        {
          "indexed": false,
          "internalType": "address",
          "name": "account",
          "type": "address"
        }
      ],
      "name": "Paused",
      "type": "event"
    },
    {
      "anonymous": false,
      "inputs": [
        {
          "indexed": false,
          "internalType": "uint256",
          "name": "amountOfInvestors",
          "type": "uint256"
        },
        {
          "indexed": false,
          "internalType": "uint256",
          "name": "timestamp",
          "type": "uint256"
        }
      ],
      "name": "RefundedInvestors",
      "type": "event"
    },
    {
      "anonymous": false,
      "inputs": [
        {
          "indexed": true,
          "internalType": "bytes32",
          "name": "role",
          "type": "bytes32"
        },
        {
          "indexed": true,
          "internalType": "bytes32",
          "name": "previousAdminRole",
          "type": "bytes32"
        },
        {
          "indexed": true,
          "internalType": "bytes32",
          "name": "newAdminRole",
          "type": "bytes32"
        }
      ],
      "name": "RoleAdminChanged",
      "type": "event"
    },
    {
      "anonymous": false,
      "inputs": [
        {
          "indexed": true,
          "internalType": "bytes32",
          "name": "role",
          "type": "bytes32"
        },
        {
          "indexed": true,
          "internalType": "address",
          "name": "account",
          "type": "address"
        },
        {
          "indexed": true,
          "internalType": "address",
          "name": "sender",
          "type": "address"
        }
      ],
      "name": "RoleGranted",
      "type": "event"
    },
    {
      "anonymous": false,
      "inputs": [
        {
          "indexed": true,
          "internalType": "bytes32",
          "name": "role",
          "type": "bytes32"
        },
        {
          "indexed": true,
          "internalType": "address",
          "name": "account",
          "type": "address"
        },
        {
          "indexed": true,
          "internalType": "address",
          "name": "sender",
          "type": "address"
        }
      ],
      "name": "RoleRevoked",
      "type": "event"
    },
    {
      "anonymous": false,
      "inputs": [
        {
          "indexed": false,
          "internalType": "address",
          "name": "account",
          "type": "address"
        }
      ],
      "name": "Unpaused",
      "type": "event"
    },
    {
      "anonymous": false,
      "inputs": [
        {
          "indexed": false,
          "internalType": "address",
          "name": "investor",
          "type": "address"
        },
        {
          "indexed": false,
          "internalType": "uint256",
          "name": "amount",
          "type": "uint256"
        },
        {
          "indexed": false,
          "internalType": "uint256",
          "name": "timestamp",
          "type": "uint256"
        }
      ],
      "name": "WithdrawalMade",
      "type": "event"
    },
    {
      "inputs": [],
      "name": "DEFAULT_ADMIN_ROLE",
      "outputs": [
        {
          "internalType": "bytes32",
          "name": "",
          "type": "bytes32"
        }
      ],
      "stateMutability": "view",
      "type": "function"
    },
    {
      "inputs": [],
      "name": "WHALE_INVESTOR_THRESHOLD",
      "outputs": [
        {
          "internalType": "uint256",
          "name": "",
          "type": "uint256"
        }
      ],
      "stateMutability": "view",
      "type": "function"
    },
    {
      "inputs": [],
      "name": "bondDistribution",
      "outputs": [
        {
          "internalType": "contract BondDistribution",
          "name": "",
          "type": "address"
        }
      ],
      "stateMutability": "view",
      "type": "function"
    },
    {
      "inputs": [],
      "name": "bondPriceSet",
      "outputs": [
        {
          "internalType": "bool",
          "name": "",
          "type": "bool"
        }
      ],
      "stateMutability": "view",
      "type": "function"
    },
    {
      "inputs": [],
      "name": "getInvestorAmount",
      "outputs": [
        {
          "internalType": "uint256",
          "name": "",
          "type": "uint256"
        }
      ],
      "stateMutability": "view",
      "type": "function"
    },
    {
      "inputs": [
        {
          "internalType": "bytes32",
          "name": "role",
          "type": "bytes32"
        }
      ],
      "name": "getRoleAdmin",
      "outputs": [
        {
          "internalType": "bytes32",
          "name": "",
          "type": "bytes32"
        }
      ],
      "stateMutability": "view",
      "type": "function"
    },
    {
      "inputs": [
        {
          "internalType": "bytes32",
          "name": "role",
          "type": "bytes32"
        },
        {
          "internalType": "address",
          "name": "account",
          "type": "address"
        }
      ],
      "name": "grantRole",
      "outputs": [],
      "stateMutability": "nonpayable",
      "type": "function"
    },
    {
      "inputs": [
        {
          "internalType": "bytes32",
          "name": "role",
          "type": "bytes32"
        },
        {
          "internalType": "address",
          "name": "account",
          "type": "address"
        }
      ],
      "name": "hasRole",
      "outputs": [
        {
          "internalType": "bool",
          "name": "",
          "type": "bool"
        }
      ],
      "stateMutability": "view",
      "type": "function"
    },
    {
      "inputs": [
        {
          "internalType": "uint256",
          "name": "daysToAddToFundingPeriodLimit_",
          "type": "uint256"
        }
      ],
      "name": "incrementFundingPeriodLimit",
      "outputs": [],
      "stateMutability": "nonpayable",
      "type": "function"
    },
    {
      "inputs": [
        {
          "internalType": "uint256",
          "name": "amountToInvest_",
          "type": "uint256"
        }
      ],
      "name": "invest",
      "outputs": [],
      "stateMutability": "nonpayable",
      "type": "function"
    },
    {
      "inputs": [
        {
          "internalType": "address",
          "name": "",
          "type": "address"
        }
      ],
      "name": "investedAmountPerInvestor",
      "outputs": [
        {
          "internalType": "uint256",
          "name": "investedAmount",
          "type": "uint256"
        },
        {
          "internalType": "uint256",
          "name": "investorIndex",
          "type": "uint256"
        }
      ],
      "stateMutability": "view",
      "type": "function"
    },
    {
      "inputs": [
        {
          "internalType": "uint256",
          "name": "index",
          "type": "uint256"
        }
      ],
      "name": "investors",
      "outputs": [
        {
          "internalType": "address",
          "name": "",
          "type": "address"
        }
      ],
      "stateMutability": "view",
      "type": "function"
    },
    {
      "inputs": [],
      "name": "ogNFT",
      "outputs": [
        {
          "internalType": "contract InvestorNFT",
          "name": "",
          "type": "address"
        }
      ],
      "stateMutability": "view",
      "type": "function"
    },
    {
      "inputs": [],
      "name": "pause",
      "outputs": [],
      "stateMutability": "nonpayable",
      "type": "function"
    },
    {
      "inputs": [],
      "name": "paused",
      "outputs": [
        {
          "internalType": "bool",
          "name": "",
          "type": "bool"
        }
      ],
      "stateMutability": "view",
      "type": "function"
    },
    {
      "inputs": [
        {
          "internalType": "uint256",
          "name": "amountOfInvestorsToRefund_",
          "type": "uint256"
        }
      ],
      "name": "refundInvestors",
      "outputs": [],
      "stateMutability": "nonpayable",
      "type": "function"
    },
    {
      "inputs": [
        {
          "internalType": "bytes32",
          "name": "role",
          "type": "bytes32"
        },
        {
          "internalType": "address",
          "name": "callerConfirmation",
          "type": "address"
        }
      ],
      "name": "renounceRole",
      "outputs": [],
      "stateMutability": "nonpayable",
      "type": "function"
    },
    {
      "inputs": [
        {
          "internalType": "bytes32",
          "name": "role",
          "type": "bytes32"
        },
        {
          "internalType": "address",
          "name": "account",
          "type": "address"
        }
      ],
      "name": "revokeRole",
      "outputs": [],
      "stateMutability": "nonpayable",
      "type": "function"
    },
    {
      "inputs": [
        {
          "internalType": "address",
          "name": "_bondDistribution",
          "type": "address"
        }
      ],
      "name": "setBondDistribution",
      "outputs": [],
      "stateMutability": "nonpayable",
      "type": "function"
    },
    {
      "inputs": [
        {
          "internalType": "uint256",
          "name": "_bondPrice",
          "type": "uint256"
        }
      ],
      "name": "setBondPriceAndInitiateMinting",
      "outputs": [],
      "stateMutability": "nonpayable",
      "type": "function"
    },
    {
      "inputs": [
        {
          "internalType": "uint256",
          "name": "minimumInvestmentAmount_",
          "type": "uint256"
        }
      ],
      "name": "setMinimumInvestmentAmount",
      "outputs": [],
      "stateMutability": "nonpayable",
      "type": "function"
    },
    {
      "inputs": [
        {
          "internalType": "address",
          "name": "ogNFTAddress_",
          "type": "address"
        }
      ],
      "name": "setOgNFTAddress",
      "outputs": [],
      "stateMutability": "nonpayable",
      "type": "function"
    },
    {
      "inputs": [
        {
          "internalType": "uint256",
          "name": "targetAmount_",
          "type": "uint256"
        }
      ],
      "name": "setTargetAmount",
      "outputs": [],
      "stateMutability": "nonpayable",
      "type": "function"
    },
    {
      "inputs": [
        {
          "internalType": "address",
          "name": "whaleNFTAddress_",
          "type": "address"
        }
      ],
      "name": "setWhaleNFTAddress",
      "outputs": [],
      "stateMutability": "nonpayable",
      "type": "function"
    },
    {
      "inputs": [
        {
          "internalType": "bytes4",
          "name": "interfaceId",
          "type": "bytes4"
        }
      ],
      "name": "supportsInterface",
      "outputs": [
        {
          "internalType": "bool",
          "name": "",
          "type": "bool"
        }
      ],
      "stateMutability": "view",
      "type": "function"
    },
    {
      "inputs": [],
      "name": "targetAmount",
      "outputs": [
        {
          "internalType": "uint256",
          "name": "",
          "type": "uint256"
        }
      ],
      "stateMutability": "view",
      "type": "function"
    },
    {
      "inputs": [],
      "name": "unpause",
      "outputs": [],
      "stateMutability": "nonpayable",
      "type": "function"
    },
    {
      "inputs": [],
      "name": "usdcToken",
      "outputs": [
        {
          "internalType": "contract IERC20",
          "name": "",
          "type": "address"
        }
      ],
      "stateMutability": "view",
      "type": "function"
    },
    {
      "inputs": [],
      "name": "whaleNFT",
      "outputs": [
        {
          "internalType": "contract InvestorNFT",
          "name": "",
          "type": "address"
        }
      ],
      "stateMutability": "view",
      "type": "function"
    },
    {
      "inputs": [],
      "name": "withdraw",
      "outputs": [],
      "stateMutability": "nonpayable",
      "type": "function"
    }
  ],
  "bytecode": "0x60a06040523480156200001157600080fd5b5060405162001c3238038062001c328339810160408190526200003491620001cb565b6001805460ff1916815560025560008490036200006457604051630289423360e11b815260040160405180910390fd5b8260000362000086576040516358f90cb360e11b815260040160405180910390fd5b81600003620000a85760405163058dad3d60e51b815260040160405180910390fd5b6001600160a01b038116620000d0576040516365400b5960e01b815260040160405180910390fd5b620000dd6000336200011c565b5060058490556006839055620000f7826201518062000232565b6200010390426200024c565b6007556001600160a01b03166080525062000262915050565b6000828152602081815260408083206001600160a01b038516845290915281205460ff16620001c1576000838152602081815260408083206001600160a01b03861684529091529020805460ff19166001179055620001783390565b6001600160a01b0316826001600160a01b0316847f2f8788117e7eff1d82e926ec794901d17c78024a50270940304540a733656f0d60405160405180910390a4506001620001c5565b5060005b92915050565b60008060008060808587031215620001e257600080fd5b845160208601516040870151606088015192965090945092506001600160a01b03811681146200021157600080fd5b939692955090935050565b634e487b7160e01b600052601160045260246000fd5b8082028115828204841417620001c557620001c56200021c565b80820180821115620001c557620001c56200021c565b60805161197c620002b6600039600081816102210152818161056801528181610661015281816107d8015281816109a701528181610ad801528181610e53015281816110170152611513015261197c6000f3fe608060405234801561001057600080fd5b50600436106101da5760003560e01c80635c975abb11610104578063953b8fb8116100a2578063a34f5cd811610071578063a34f5cd814610408578063d547741f1461041b578063e505b0c71461042e578063ead6d69e1461044157600080fd5b8063953b8fb8146103dc5780639bafe6c0146103e55780639ee987b2146103ed578063a217fddf1461040057600080fd5b80638456cb59116100de5780638456cb59146103795780638766fbb11461038157806389c6a42c146103bd57806391d14854146103c957600080fd5b80635c975abb1461034857806376ac85a814610353578063803100c81461036657600080fd5b80632f2ff15d1161017c5780633feb5f2b1161014b5780633feb5f2b146102fb5780634539a7e11461030e5780634d55ed9b1461032157806353ce46261461033457600080fd5b80632f2ff15d146102c557806336568abe146102d85780633ccfd60b146102eb5780633f4ba83a146102f357600080fd5b80631553c740116101b85780631553c7401461025b57806317b1090b1461026e578063248a9ca3146102815780632afcf480146102b257600080fd5b806301ffc9a7146101df5780630930618b1461020757806311eac8551461021c575b600080fd5b6101f26101ed3660046117b2565b610454565b60405190151581526020015b60405180910390f35b61021a6102153660046117e3565b61048b565b005b6102437f000000000000000000000000000000000000000000000000000000000000000081565b6040516001600160a01b0390911681526020016101fe565b600454610243906001600160a01b031681565b600354610243906001600160a01b031681565b6102a461028f3660046117e3565b60009081526020819052604090206001015490565b6040519081526020016101fe565b61021a6102c03660046117e3565b6104de565b61021a6102d3366004611818565b6108dd565b61021a6102e6366004611818565b610902565b61021a61093a565b61021a610bd4565b6102436103093660046117e3565b610bea565b61021a61031c3660046117e3565b610c1a565b61021a61032f3660046117e3565b610c4c565b600a546101f290600160a01b900460ff1681565b60015460ff166101f2565b61021a610361366004611844565b610c7f565b61021a610374366004611844565b610cd4565b61021a610d29565b6103a861038f366004611844565b6009602052600090815260409020805460019091015482565b604080519283526020830191909152016101fe565b6102a464012a05f20081565b6101f26103d7366004611818565b610d3c565b6102a460065481565b6008546102a4565b61021a6103fb3660046117e3565b610d65565b6102a4600081565b61021a610416366004611844565b610f4e565b61021a610429366004611818565b610f7c565b61021a61043c3660046117e3565b610fa1565b600a54610243906001600160a01b031681565b60006001600160e01b03198216637965db0b60e01b148061048557506301ffc9a760e01b6001600160e01b03198316145b92915050565b6000610496816111fa565b816000036104b75760405163058dad3d60e51b815260040160405180910390fd5b6104c48262015180611875565b600760008282546104d5919061188c565b90915550505050565b60035481906001600160a01b0316158061050157506004546001600160a01b0316155b1561051f57604051631c868b4f60e01b815260040160405180910390fd5b4260075411610550576007546040516327bab4f360e01b815260040161054791815260200190565b60405180910390fd5b6040516370a0823160e01b81523060048201526000907f00000000000000000000000000000000000000000000000000000000000000006001600160a01b0316906370a0823190602401602060405180830381865afa1580156105b7573d6000803e3d6000fd5b505050506040513d601f19601f820116820180604052508101906105db919061189f565b6006549091506105eb838361188c565b1115610618576006546040516337427f7d60e11b8152610547918391600401918252602082015260400190565b60055482101561064957600554604051631ead47ff60e01b8152610547918491600401918252602082015260400190565b6040516370a0823160e01b81523360048201526000907f00000000000000000000000000000000000000000000000000000000000000006001600160a01b0316906370a0823190602401602060405180830381865afa1580156106b0573d6000803e3d6000fd5b505050506040513d601f19601f820116820180604052508101906106d4919061189f565b90508281101561070157604051630b39833f60e41b81526004810182905260248101849052604401610547565b610709611204565b61071161122c565b336000908152600960205260408120805490910361078757600880546001818101835560008390527ff3f7a9fe364faab93b216da50a3214154f22a0a2b415b23a84c8169e8b636ee390910180546001600160a01b03191633179055905461077991906118b8565b600182015561078733611252565b8481600001600082825461079b919061188c565b9091555050805464012a05f200116107b6576107b63361132e565b6040516323b872dd60e01b8152336004820152306024820152604481018690527f00000000000000000000000000000000000000000000000000000000000000006001600160a01b0316906323b872dd906064016020604051808303816000875af1158015610829573d6000803e3d6000fd5b505050506040513d601f19601f8201168201806040525081019061084d91906118cb565b61088d5760405162461bcd60e51b8152602060048201526011602482015270125b9d995cdd1b595b9d0819985a5b1959607a1b6044820152606401610547565b6040805133815260208101879052428183015290517f0a9bd546b0677820e552855be50bea4847cd782448e9f00d2543ceb3b91c2c5b9181900360600190a1506108d76001600255565b50505050565b6000828152602081905260409020600101546108f8816111fa565b6108d783836113d5565b6001600160a01b038116331461092b5760405163334bd91960e11b815260040160405180910390fd5b6109358282611467565b505050565b6109426114d2565b33600090815260096020908152604080832081518083019092528054808352600190910154928201929092529181900361098f576040516333be397f60e01b815260040160405180910390fd5b6040516370a0823160e01b81523060048201526000907f00000000000000000000000000000000000000000000000000000000000000006001600160a01b0316906370a0823190602401602060405180830381865afa1580156109f6573d6000803e3d6000fd5b505050506040513d601f19601f82011682018060405250810190610a1a919061189f565b905081811015610a4757604051630b39833f60e41b81526004810182905260248101839052604401610547565b610a4f611204565b610a5761122c565b33600090815260096020526040902080546001820154600880549091908110610a8257610a826118ed565b6000918252602090912001546001600160a01b03163314610aa557610aa5611903565b610ab282600101546115c7565b6000808355600183015560405163a9059cbb60e01b8152336004820152602481018290527f00000000000000000000000000000000000000000000000000000000000000006001600160a01b03169063a9059cbb906044016020604051808303816000875af1158015610b29573d6000803e3d6000fd5b505050506040513d601f19601f82011682018060405250810190610b4d91906118cb565b610b895760405162461bcd60e51b815260206004820152600d60248201526c1499599d5b990819985a5b1959609a1b6044820152606401610547565b6040805133815260208101839052428183015290517f2d4d49c3e017b8235c908cbaa83a2431a08f3b950712696ece2088964fd399f09181900360600190a150506109356001600255565b6000610bdf816111fa565b610be76116c9565b50565b600060088281548110610bff57610bff6118ed565b6000918252602090912001546001600160a01b031692915050565b6000610c25816111fa565b81600003610c4657604051630289423360e11b815260040160405180910390fd5b50600555565b6000610c57816111fa565b6006548211610c79576040516332d58aff60e01b815260040160405180910390fd5b50600655565b6000610c8a816111fa565b6001600160a01b038216610cb157604051631c868b4f60e01b815260040160405180910390fd5b50600480546001600160a01b0319166001600160a01b0392909216919091179055565b6000610cdf816111fa565b6001600160a01b038216610d0657604051631c868b4f60e01b815260040160405180910390fd5b50600380546001600160a01b0319166001600160a01b0392909216919091179055565b6000610d34816111fa565b610be761171b565b6000918252602082815260408084206001600160a01b0393909316845291905290205460ff1690565b80610d6e6114d2565b80600003610d8f576040516342e0d85160e11b815260040160405180910390fd5b600854811115610db257604051633d49b89f60e01b815260040160405180910390fd5b610dba611204565b610dc261122c565b600080835b8015610f05576008600081548110610de157610de16118ed565b60009182526020808320909101546001600160a01b031680835260099091526040822080548382556001820184905591955090935090610e20906115c7565b81610e2a81611919565b60405163a9059cbb60e01b81526001600160a01b038781166004830152602482018790529194507f0000000000000000000000000000000000000000000000000000000000000000909116915063a9059cbb906044016020604051808303816000875af1158015610e9f573d6000803e3d6000fd5b505050506040513d601f19601f82011682018060405250810190610ec391906118cb565b610eff5760405162461bcd60e51b815260206004820152600d60248201526c1499599d5b990819985a5b1959609a1b6044820152606401610547565b50610dc7565b604080518681524260208201527f965f783d8e21d3e7ce50257c7e66a293fa0f50b296dad79a71d53a9bfb809069910160405180910390a1505050610f4a6001600255565b5050565b6000610f59816111fa565b50600a80546001600160a01b0319166001600160a01b0392909216919091179055565b600082815260208190526040902060010154610f97816111fa565b6108d78383611467565b6000610fac816111fa565b600a54600160a01b900460ff1615610fff5760405162461bcd60e51b8152602060048201526016602482015275109bdb99081c1c9a58d948185b1c9958591e481cd95d60521b6044820152606401610547565b6006546040516370a0823160e01b81523060048201527f00000000000000000000000000000000000000000000000000000000000000006001600160a01b0316906370a0823190602401602060405180830381865afa158015611066573d6000803e3d6000fd5b505050506040513d601f19601f8201168201806040525081019061108a919061189f565b10156110d85760405162461bcd60e51b815260206004820152601960248201527f54617267657420616d6f756e74206e6f742072656163686564000000000000006044820152606401610547565b60075442106111295760405162461bcd60e51b815260206004820152601860248201527f46756e64696e6720706572696f642068617320656e64656400000000000000006044820152606401610547565b600a54604051627dc55960e51b8152600481018490526001600160a01b0390911690630fb8ab2090602401600060405180830381600087803b15801561116e57600080fd5b505af1158015611182573d6000803e3d6000fd5b5050600a805460ff60a01b198116600160a01b1790915560408051630f2887a560e11b815290516001600160a01b039092169350631e510f4a925060048082019260009290919082900301818387803b1580156111de57600080fd5b505af11580156111f2573d6000803e3d6000fd5b505050505050565b610be78133611756565b600280540361122657604051633ee5aeb560e01b815260040160405180910390fd5b60028055565b60015460ff16156112505760405163d93c066560e01b815260040160405180910390fd5b565b600480546040516370a0823160e01b81526001600160a01b03848116938201939093529116906370a0823190602401602060405180830381865afa15801561129e573d6000803e3d6000fd5b505050506040513d601f19601f820116820180604052508101906112c2919061189f565b600003610be757600480546040516340d097c360e01b81526001600160a01b03848116938201939093529116906340d097c3906024015b600060405180830381600087803b15801561131357600080fd5b505af1158015611327573d6000803e3d6000fd5b5050505050565b6003546040516370a0823160e01b81526001600160a01b038381166004830152909116906370a0823190602401602060405180830381865afa158015611378573d6000803e3d6000fd5b505050506040513d601f19601f8201168201806040525081019061139c919061189f565b600003610be7576003546040516340d097c360e01b81526001600160a01b038381166004830152909116906340d097c3906024016112f9565b60006113e18383610d3c565b61145f576000838152602081815260408083206001600160a01b03861684529091529020805460ff191660011790556114173390565b6001600160a01b0316826001600160a01b0316847f2f8788117e7eff1d82e926ec794901d17c78024a50270940304540a733656f0d60405160405180910390a4506001610485565b506000610485565b60006114738383610d3c565b1561145f576000838152602081815260408083206001600160a01b0386168085529252808320805460ff1916905551339286917ff6391f5c32d9c69d2a47ea670b442974b53935d1edc7fd64eb21e047a839171b9190a4506001610485565b6007544210156114fb576007546040516309ec001360e11b815260040161054791815260200190565b6006546040516370a0823160e01b81523060048201527f00000000000000000000000000000000000000000000000000000000000000006001600160a01b0316906370a0823190602401602060405180830381865afa158015611562573d6000803e3d6000fd5b505050506040513d601f19601f82011682018060405250810190611586919061189f565b106115a457604051631780354d60e21b815260040160405180910390fd5b600854600003611250576040516342e0d85160e11b815260040160405180910390fd5b6008546000906115d9906001906118b8565b9050600060096000600884815481106115f4576115f46118ed565b60009182526020808320909101546001600160a01b03168352820192909252604001902060018101849055600880549192509083908110611637576116376118ed565b600091825260209091200154600880546001600160a01b039092169185908110611663576116636118ed565b9060005260206000200160006101000a8154816001600160a01b0302191690836001600160a01b0316021790555060088054806116a2576116a2611930565b600082815260209020810160001990810180546001600160a01b0319169055019055505050565b6116d161178f565b6001805460ff191690557f5db9ee0a495bf2e6ff9c91a7834c1ba4fdd244a5e8aa4e537bd38aeae4b073aa335b6040516001600160a01b03909116815260200160405180910390a1565b61172361122c565b6001805460ff1916811790557f62e78cea01bee320cd4e420270b5ea74000d11b0c9f74754ebdbfc544b05a258336116fe565b6117608282610d3c565b610f4a5760405163e2517d3f60e01b81526001600160a01b038216600482015260248101839052604401610547565b60015460ff1661125057604051638dfc202b60e01b815260040160405180910390fd5b6000602082840312156117c457600080fd5b81356001600160e01b0319811681146117dc57600080fd5b9392505050565b6000602082840312156117f557600080fd5b5035919050565b80356001600160a01b038116811461181357600080fd5b919050565b6000806040838503121561182b57600080fd5b8235915061183b602084016117fc565b90509250929050565b60006020828403121561185657600080fd5b6117dc826117fc565b634e487b7160e01b600052601160045260246000fd5b80820281158282048414176104855761048561185f565b808201808211156104855761048561185f565b6000602082840312156118b157600080fd5b5051919050565b818103818111156104855761048561185f565b6000602082840312156118dd57600080fd5b815180151581146117dc57600080fd5b634e487b7160e01b600052603260045260246000fd5b634e487b7160e01b600052600160045260246000fd5b6000816119285761192861185f565b506000190190565b634e487b7160e01b600052603160045260246000fdfea2646970667358221220cb5d4249b9f4c6363c9e1a55f64d674540cb50cefaba8d43ea3d7b996aeb976264736f6c63430008140033",
  "linkReferences": {},
  "deployedLinkReferences": {}
}