{
  "_format": "hh-sol-artifact-1",
  "contractName": "BondDistribution",
  "sourceName": "contracts/BondDistribution.sol",
  "abi": [
    {
      "inputs": [
        {
          "internalType": "address",
          "name": "_bondToken",
          "type": "address"
        },
        {
          "internalType": "address",
          "name": "_fundingContract",
          "type": "address"
        },
        {
          "internalType": "address",
          "name": "_usdcToken",
          "type": "address"
        }
      ],
      "stateMutability": "nonpayable",
      "type": "constructor"
    },
    {
      "inputs": [],
      "name": "AccessControlBadConfirmation",
      "type": "error"
    },
    {
      "inputs": [
        {
          "internalType": "address",
          "name": "account",
          "type": "address"
        },
        {
          "internalType": "bytes32",
          "name": "neededRole",
          "type": "bytes32"
        }
      ],
      "name": "AccessControlUnauthorizedAccount",
      "type": "error"
    },
    {
      "anonymous": false,
      "inputs": [
        {
          "indexed": false,
          "internalType": "address",
          "name": "investor",
          "type": "address"
        },
        {
          "indexed": false,
          "internalType": "uint256",
          "name": "amount",
          "type": "uint256"
        }
      ],
      "name": "BondTokensClaimed",
      "type": "event"
    },
    {
      "anonymous": false,
      "inputs": [
        {
          "indexed": false,
          "internalType": "uint256",
          "name": "amount",
          "type": "uint256"
        }
      ],
      "name": "BondTokensMinted",
      "type": "event"
    },
    {
      "anonymous": false,
      "inputs": [
        {
          "indexed": true,
          "internalType": "bytes32",
          "name": "role",
          "type": "bytes32"
        },
        {
          "indexed": true,
          "internalType": "bytes32",
          "name": "previousAdminRole",
          "type": "bytes32"
        },
        {
          "indexed": true,
          "internalType": "bytes32",
          "name": "newAdminRole",
          "type": "bytes32"
        }
      ],
      "name": "RoleAdminChanged",
      "type": "event"
    },
    {
      "anonymous": false,
      "inputs": [
        {
          "indexed": true,
          "internalType": "bytes32",
          "name": "role",
          "type": "bytes32"
        },
        {
          "indexed": true,
          "internalType": "address",
          "name": "account",
          "type": "address"
        },
        {
          "indexed": true,
          "internalType": "address",
          "name": "sender",
          "type": "address"
        }
      ],
      "name": "RoleGranted",
      "type": "event"
    },
    {
      "anonymous": false,
      "inputs": [
        {
          "indexed": true,
          "internalType": "bytes32",
          "name": "role",
          "type": "bytes32"
        },
        {
          "indexed": true,
          "internalType": "address",
          "name": "account",
          "type": "address"
        },
        {
          "indexed": true,
          "internalType": "address",
          "name": "sender",
          "type": "address"
        }
      ],
      "name": "RoleRevoked",
      "type": "event"
    },
    {
      "inputs": [],
      "name": "DEFAULT_ADMIN_ROLE",
      "outputs": [
        {
          "internalType": "bytes32",
          "name": "",
          "type": "bytes32"
        }
      ],
      "stateMutability": "view",
      "type": "function"
    },
    {
      "inputs": [],
      "name": "DISTRIBUTOR_ROLE",
      "outputs": [
        {
          "internalType": "bytes32",
          "name": "",
          "type": "bytes32"
        }
      ],
      "stateMutability": "view",
      "type": "function"
    },
    {
      "inputs": [],
      "name": "FUNDING_CONTRACT_ROLE",
      "outputs": [
        {
          "internalType": "bytes32",
          "name": "",
          "type": "bytes32"
        }
      ],
      "stateMutability": "view",
      "type": "function"
    },
    {
      "inputs": [],
      "name": "bondPrice",
      "outputs": [
        {
          "internalType": "uint256",
          "name": "",
          "type": "uint256"
        }
      ],
      "stateMutability": "view",
      "type": "function"
    },
    {
      "inputs": [],
      "name": "bondPriceSet",
      "outputs": [
        {
          "internalType": "bool",
          "name": "",
          "type": "bool"
        }
      ],
      "stateMutability": "view",
      "type": "function"
    },
    {
      "inputs": [],
      "name": "bondToken",
      "outputs": [
        {
          "internalType": "contract BondToken",
          "name": "",
          "type": "address"
        }
      ],
      "stateMutability": "view",
      "type": "function"
    },
    {
      "inputs": [],
      "name": "claimBondTokens",
      "outputs": [],
      "stateMutability": "nonpayable",
      "type": "function"
    },
    {
      "inputs": [
        {
          "internalType": "address",
          "name": "",
          "type": "address"
        }
      ],
      "name": "claimableTokens",
      "outputs": [
        {
          "internalType": "uint256",
          "name": "",
          "type": "uint256"
        }
      ],
      "stateMutability": "view",
      "type": "function"
    },
    {
      "inputs": [],
      "name": "distributionReady",
      "outputs": [
        {
          "internalType": "bool",
          "name": "",
          "type": "bool"
        }
      ],
      "stateMutability": "view",
      "type": "function"
    },
    {
      "inputs": [],
      "name": "fundingContract",
      "outputs": [
        {
          "internalType": "contract Funding",
          "name": "",
          "type": "address"
        }
      ],
      "stateMutability": "view",
      "type": "function"
    },
    {
      "inputs": [
        {
          "internalType": "address",
          "name": "investor",
          "type": "address"
        }
      ],
      "name": "getClaimableTokens",
      "outputs": [
        {
          "internalType": "uint256",
          "name": "",
          "type": "uint256"
        }
      ],
      "stateMutability": "view",
      "type": "function"
    },
    {
      "inputs": [
        {
          "internalType": "bytes32",
          "name": "role",
          "type": "bytes32"
        }
      ],
      "name": "getRoleAdmin",
      "outputs": [
        {
          "internalType": "bytes32",
          "name": "",
          "type": "bytes32"
        }
      ],
      "stateMutability": "view",
      "type": "function"
    },
    {
      "inputs": [
        {
          "internalType": "bytes32",
          "name": "role",
          "type": "bytes32"
        },
        {
          "internalType": "address",
          "name": "account",
          "type": "address"
        }
      ],
      "name": "grantRole",
      "outputs": [],
      "stateMutability": "nonpayable",
      "type": "function"
    },
    {
      "inputs": [
        {
          "internalType": "bytes32",
          "name": "role",
          "type": "bytes32"
        },
        {
          "internalType": "address",
          "name": "account",
          "type": "address"
        }
      ],
      "name": "hasRole",
      "outputs": [
        {
          "internalType": "bool",
          "name": "",
          "type": "bool"
        }
      ],
      "stateMutability": "view",
      "type": "function"
    },
    {
      "inputs": [],
      "name": "initiateMinting",
      "outputs": [],
      "stateMutability": "nonpayable",
      "type": "function"
    },
    {
      "inputs": [
        {
          "internalType": "bytes32",
          "name": "role",
          "type": "bytes32"
        },
        {
          "internalType": "address",
          "name": "callerConfirmation",
          "type": "address"
        }
      ],
      "name": "renounceRole",
      "outputs": [],
      "stateMutability": "nonpayable",
      "type": "function"
    },
    {
      "inputs": [
        {
          "internalType": "bytes32",
          "name": "role",
          "type": "bytes32"
        },
        {
          "internalType": "address",
          "name": "account",
          "type": "address"
        }
      ],
      "name": "revokeRole",
      "outputs": [],
      "stateMutability": "nonpayable",
      "type": "function"
    },
    {
      "inputs": [
        {
          "internalType": "uint256",
          "name": "_bondPrice",
          "type": "uint256"
        }
      ],
      "name": "setBondPrice",
      "outputs": [],
      "stateMutability": "nonpayable",
      "type": "function"
    },
    {
      "inputs": [
        {
          "internalType": "bytes4",
          "name": "interfaceId",
          "type": "bytes4"
        }
      ],
      "name": "supportsInterface",
      "outputs": [
        {
          "internalType": "bool",
          "name": "",
          "type": "bool"
        }
      ],
      "stateMutability": "view",
      "type": "function"
    },
    {
      "inputs": [],
      "name": "totalBondTokens",
      "outputs": [
        {
          "internalType": "uint256",
          "name": "",
          "type": "uint256"
        }
      ],
      "stateMutability": "view",
      "type": "function"
    },
    {
      "inputs": [],
      "name": "usdcToken",
      "outputs": [
        {
          "internalType": "contract IERC20",
          "name": "",
          "type": "address"
        }
      ],
      "stateMutability": "view",
      "type": "function"
    }
  ],
  "bytecode": "0x60806040523480156200001157600080fd5b50604051620010bd380380620010bd8339810160408190526200003491620001ae565b600180546001600160a01b038086166001600160a01b0319928316179092556002805485841690831617905560038054928416929091169190911790556200007e600033620000e2565b50620000ab7ffbd454f36a7e1a388bd6fc3ab10d434aa4578f811acbbcf33afb1c697486313c33620000e2565b50620000d87f1887fd9af3ff438acb7708f62c2f556e7ac866f5c84890c010ba6a37e422d19d83620000e2565b50505050620001f8565b6000828152602081815260408083206001600160a01b038516845290915281205460ff1662000187576000838152602081815260408083206001600160a01b03861684529091529020805460ff191660011790556200013e3390565b6001600160a01b0316826001600160a01b0316847f2f8788117e7eff1d82e926ec794901d17c78024a50270940304540a733656f0d60405160405180910390a45060016200018b565b5060005b92915050565b80516001600160a01b0381168114620001a957600080fd5b919050565b600080600060608486031215620001c457600080fd5b620001cf8462000191565b9250620001df6020850162000191565b9150620001ef6040850162000191565b90509250925092565b610eb580620002086000396000f3fe608060405234801561001057600080fd5b50600436106101375760003560e01c806353bdd503116100b8578063a17ce95c1161007c578063a17ce95c146102c1578063a217fddf146102c9578063c28f4392146102d1578063d547741f146102e4578063d7ccfb0b146102f7578063f0bd87cc1461030057600080fd5b806353bdd5031461024757806353ce46261461026e57806384d242261461027b57806391d148541461029b578063995df76c146102ae57600080fd5b8063248a9ca3116100ff578063248a9ca3146101e357806324e57fee1461020657806328cd2168146102185780632f2ff15d1461022157806336568abe1461023457600080fd5b806301ffc9a71461013c5780630fb8ab201461016457806311eac855146101795780631b831ead146101a45780631e510f4a146101db575b600080fd5b61014f61014a366004610d10565b610327565b60405190151581526020015b60405180910390f35b610177610172366004610d41565b61035e565b005b60035461018c906001600160a01b031681565b6040516001600160a01b03909116815260200161015b565b6101cd6101b2366004610d6f565b6001600160a01b031660009081526007602052604090205490565b60405190815260200161015b565b610177610446565b6101cd6101f1366004610d41565b60009081526020819052604090206001015490565b60065461014f90610100900460ff1681565b6101cd60055481565b61017761022f366004610d8c565b61079a565b610177610242366004610d8c565b6107c5565b6101cd7f1887fd9af3ff438acb7708f62c2f556e7ac866f5c84890c010ba6a37e422d19d81565b60065461014f9060ff1681565b6101cd610289366004610d6f565b60076020526000908152604090205481565b61014f6102a9366004610d8c565b6107fd565b60025461018c906001600160a01b031681565b610177610826565b6101cd600081565b60015461018c906001600160a01b031681565b6101776102f2366004610d8c565b61098d565b6101cd60045481565b6101cd7ffbd454f36a7e1a388bd6fc3ab10d434aa4578f811acbbcf33afb1c697486313c81565b60006001600160e01b03198216637965db0b60e01b148061035857506301ffc9a760e01b6001600160e01b03198316145b92915050565b7f1887fd9af3ff438acb7708f62c2f556e7ac866f5c84890c010ba6a37e422d19d610388816109b2565b60065460ff16156103d95760405162461bcd60e51b8152602060048201526016602482015275109bdb99081c1c9a58d948185b1c9958591e481cd95d60521b60448201526064015b60405180910390fd5b600082116104335760405162461bcd60e51b815260206004820152602160248201527f426f6e64207072696365206d7573742062652067726561746572207468616e206044820152600360fc1b60648201526084016103d0565b506004556006805460ff19166001179055565b7f1887fd9af3ff438acb7708f62c2f556e7ac866f5c84890c010ba6a37e422d19d610470816109b2565b600654610100900460ff16156104c85760405162461bcd60e51b815260206004820152601a60248201527f426f6e6420746f6b656e7320616c7265616479206d696e74656400000000000060448201526064016103d0565b60065460ff1661050f5760405162461bcd60e51b8152602060048201526012602482015271109bdb99081c1c9a58d9481b9bdd081cd95d60721b60448201526064016103d0565b600260009054906101000a90046001600160a01b03166001600160a01b031663953b8fb86040518163ffffffff1660e01b8152600401602060405180830381865afa158015610562573d6000803e3d6000fd5b505050506040513d601f19601f820116820180604052508101906105869190610dbc565b6003546002546040516370a0823160e01b81526001600160a01b0391821660048201529116906370a0823190602401602060405180830381865afa1580156105d2573d6000803e3d6000fd5b505050506040513d601f19601f820116820180604052508101906105f69190610dbc565b10156106445760405162461bcd60e51b815260206004820152601a60248201527f46756e64696e6720746172676574206e6f74207265616368656400000000000060448201526064016103d0565b6003546002546040516370a0823160e01b81526001600160a01b03918216600482015260009291909116906370a0823190602401602060405180830381865afa158015610695573d6000803e3d6000fd5b505050506040513d601f19601f820116820180604052508101906106b99190610dbc565b6004549091506106d182670de0b6b3a7640000610dd5565b6106db9190610dfa565b60058190556001546040516340c10f1960e01b815230600482015260248101929092526001600160a01b0316906340c10f1990604401600060405180830381600087803b15801561072b57600080fd5b505af115801561073f573d6000803e3d6000fd5b50506006805461ff0019166101001790555061075b90506109bf565b7fea11eae4e074b1096b8dd45149828cb0aa8e7b3c228c50a043bb3ebfafc7e73560055460405161078e91815260200190565b60405180910390a15050565b6000828152602081905260409020600101546107b5816109b2565b6107bf8383610bd6565b50505050565b6001600160a01b03811633146107ee5760405163334bd91960e11b815260040160405180910390fd5b6107f88282610c68565b505050565b6000918252602082815260408084206001600160a01b0393909316845291905290205460ff1690565b600654610100900460ff166108765760405162461bcd60e51b8152602060048201526016602482015275446973747269627574696f6e206e6f7420726561647960501b60448201526064016103d0565b33600090815260076020526040902054806108c85760405162461bcd60e51b81526020600482015260126024820152714e6f20746f6b656e7320746f20636c61696d60701b60448201526064016103d0565b3360008181526007602052604080822091909155600154905163a9059cbb60e01b81526004810192909252602482018390526001600160a01b03169063a9059cbb906044016020604051808303816000875af115801561092c573d6000803e3d6000fd5b505050506040513d601f19601f820116820180604052508101906109509190610e1c565b5060408051338152602081018390527f2a17083b106f0911d0cccc55c4a4ec1b320c2eb78cb5001008653c88bb7b1388910160405180910390a150565b6000828152602081905260409020600101546109a8816109b2565b6107bf8383610c68565b6109bc8133610cd3565b50565b6002546040805163026ebf9b60e61b815290516000926001600160a01b031691639bafe6c09160048083019260209291908290030181865afa158015610a09573d6000803e3d6000fd5b505050506040513d601f19601f82011682018060405250810190610a2d9190610dbc565b6003546002546040516370a0823160e01b81526001600160a01b0391821660048201529293506000929116906370a0823190602401602060405180830381865afa158015610a7f573d6000803e3d6000fd5b505050506040513d601f19601f82011682018060405250810190610aa39190610dbc565b905060005b828110156107f857600254604051633feb5f2b60e01b8152600481018390526000916001600160a01b031690633feb5f2b90602401602060405180830381865afa158015610afa573d6000803e3d6000fd5b505050506040513d601f19601f82011682018060405250810190610b1e9190610e3e565b600254604051638766fbb160e01b81526001600160a01b03808416600483015292935060009290911690638766fbb1906024016040805180830381865afa158015610b6d573d6000803e3d6000fd5b505050506040513d601f19601f82011682018060405250810190610b919190610e5b565b50905060008460055483610ba59190610dd5565b610baf9190610dfa565b6001600160a01b039093166000908152600760205260409020929092555050600101610aa8565b6000610be283836107fd565b610c60576000838152602081815260408083206001600160a01b03861684529091529020805460ff19166001179055610c183390565b6001600160a01b0316826001600160a01b0316847f2f8788117e7eff1d82e926ec794901d17c78024a50270940304540a733656f0d60405160405180910390a4506001610358565b506000610358565b6000610c7483836107fd565b15610c60576000838152602081815260408083206001600160a01b0386168085529252808320805460ff1916905551339286917ff6391f5c32d9c69d2a47ea670b442974b53935d1edc7fd64eb21e047a839171b9190a4506001610358565b610cdd82826107fd565b610d0c5760405163e2517d3f60e01b81526001600160a01b0382166004820152602481018390526044016103d0565b5050565b600060208284031215610d2257600080fd5b81356001600160e01b031981168114610d3a57600080fd5b9392505050565b600060208284031215610d5357600080fd5b5035919050565b6001600160a01b03811681146109bc57600080fd5b600060208284031215610d8157600080fd5b8135610d3a81610d5a565b60008060408385031215610d9f57600080fd5b823591506020830135610db181610d5a565b809150509250929050565b600060208284031215610dce57600080fd5b5051919050565b808202811582820484141761035857634e487b7160e01b600052601160045260246000fd5b600082610e1757634e487b7160e01b600052601260045260246000fd5b500490565b600060208284031215610e2e57600080fd5b81518015158114610d3a57600080fd5b600060208284031215610e5057600080fd5b8151610d3a81610d5a565b60008060408385031215610e6e57600080fd5b50508051602090910151909290915056fea2646970667358221220ec0637c209e0c7eb3b8f32bf604822de706e32301b846287b9d1aefa9b1526d664736f6c63430008180033",
  "linkReferences": {},
  "deployedLinkReferences": {}
}