{
  "_format": "hh-sol-artifact-1",
  "contractName": "Funding",
  "sourceName": "contracts/Funding.sol",
  "abi": [
    {
      "inputs": [
        {
          "internalType": "uint256",
          "name": "minimumInvestmentAmount_",
          "type": "uint256"
        },
        {
          "internalType": "uint256",
          "name": "targetAmount_",
          "type": "uint256"
        },
        {
          "internalType": "uint256",
          "name": "fundingPeriodLimitInDays_",
          "type": "uint256"
        },
        {
          "internalType": "address",
          "name": "usdcTokenAddress_",
          "type": "address"
        }
      ],
      "stateMutability": "nonpayable",
      "type": "constructor"
    },
    {
      "inputs": [],
      "name": "AccessControlBadConfirmation",
      "type": "error"
    },
    {
      "inputs": [
        {
          "internalType": "address",
          "name": "account",
          "type": "address"
        },
        {
          "internalType": "bytes32",
          "name": "neededRole",
          "type": "bytes32"
        }
      ],
      "name": "AccessControlUnauthorizedAccount",
      "type": "error"
    },
    {
      "inputs": [],
      "name": "EnforcedPause",
      "type": "error"
    },
    {
      "inputs": [],
      "name": "ExpectedPause",
      "type": "error"
    },
    {
      "inputs": [
        {
          "internalType": "uint256",
          "name": "invested",
          "type": "uint256"
        },
        {
          "internalType": "uint256",
          "name": "minimum",
          "type": "uint256"
        }
      ],
      "name": "FundingBelowMinimum",
      "type": "error"
    },
    {
      "inputs": [],
      "name": "FundingCannotBeZeroAddress",
      "type": "error"
    },
    {
      "inputs": [
        {
          "internalType": "uint256",
          "name": "currentBalance",
          "type": "uint256"
        },
        {
          "internalType": "uint256",
          "name": "target",
          "type": "uint256"
        }
      ],
      "name": "FundingExceedsTargetAmount",
      "type": "error"
    },
    {
      "inputs": [
        {
          "internalType": "uint256",
          "name": "available",
          "type": "uint256"
        },
        {
          "internalType": "uint256",
          "name": "required",
          "type": "uint256"
        }
      ],
      "name": "FundingInsufficientBalance",
      "type": "error"
    },
    {
      "inputs": [],
      "name": "FundingInvestorsAmountToRefundTooBig",
      "type": "error"
    },
    {
      "inputs": [],
      "name": "FundingMinimumCannotBeZero",
      "type": "error"
    },
    {
      "inputs": [],
      "name": "FundingNoInvestorsToRefund",
      "type": "error"
    },
    {
      "inputs": [],
      "name": "FundingNoRegisteredFunds",
      "type": "error"
    },
    {
      "inputs": [],
      "name": "FundingPeriodCannotBeZero",
      "type": "error"
    },
    {
      "inputs": [
        {
          "internalType": "uint256",
          "name": "finishedAt",
          "type": "uint256"
        }
      ],
      "name": "FundingPeriodFinished",
      "type": "error"
    },
    {
      "inputs": [
        {
          "internalType": "uint256",
          "name": "finishesAt",
          "type": "uint256"
        }
      ],
      "name": "FundingPeriodOngoing",
      "type": "error"
    },
    {
      "inputs": [],
      "name": "FundingTargetAmountReached",
      "type": "error"
    },
    {
      "inputs": [],
      "name": "FundingTargetCannotBeZero",
      "type": "error"
    },
    {
      "inputs": [],
      "name": "FundingTargetTooSmall",
      "type": "error"
    },
    {
      "inputs": [],
      "name": "InvestorNFTCannotBeZeroAddress",
      "type": "error"
    },
    {
      "inputs": [],
      "name": "ReentrancyGuardReentrantCall",
      "type": "error"
    },
    {
      "anonymous": false,
      "inputs": [
        {
          "indexed": false,
          "internalType": "address",
          "name": "investor",
          "type": "address"
        },
        {
          "indexed": false,
          "internalType": "uint256",
          "name": "amount",
          "type": "uint256"
        },
        {
          "indexed": false,
          "internalType": "uint256",
          "name": "timestamp",
          "type": "uint256"
        }
      ],
      "name": "InvestmentMade",
      "type": "event"
    },
    {
      "anonymous": false,
      "inputs": [
        {
          "indexed": false,
          "internalType": "address",
          "name": "account",
          "type": "address"
        }
      ],
      "name": "Paused",
      "type": "event"
    },
    {
      "anonymous": false,
      "inputs": [
        {
          "indexed": false,
          "internalType": "uint256",
          "name": "amountOfInvestors",
          "type": "uint256"
        },
        {
          "indexed": false,
          "internalType": "uint256",
          "name": "timestamp",
          "type": "uint256"
        }
      ],
      "name": "RefundedInvestors",
      "type": "event"
    },
    {
      "anonymous": false,
      "inputs": [
        {
          "indexed": true,
          "internalType": "bytes32",
          "name": "role",
          "type": "bytes32"
        },
        {
          "indexed": true,
          "internalType": "bytes32",
          "name": "previousAdminRole",
          "type": "bytes32"
        },
        {
          "indexed": true,
          "internalType": "bytes32",
          "name": "newAdminRole",
          "type": "bytes32"
        }
      ],
      "name": "RoleAdminChanged",
      "type": "event"
    },
    {
      "anonymous": false,
      "inputs": [
        {
          "indexed": true,
          "internalType": "bytes32",
          "name": "role",
          "type": "bytes32"
        },
        {
          "indexed": true,
          "internalType": "address",
          "name": "account",
          "type": "address"
        },
        {
          "indexed": true,
          "internalType": "address",
          "name": "sender",
          "type": "address"
        }
      ],
      "name": "RoleGranted",
      "type": "event"
    },
    {
      "anonymous": false,
      "inputs": [
        {
          "indexed": true,
          "internalType": "bytes32",
          "name": "role",
          "type": "bytes32"
        },
        {
          "indexed": true,
          "internalType": "address",
          "name": "account",
          "type": "address"
        },
        {
          "indexed": true,
          "internalType": "address",
          "name": "sender",
          "type": "address"
        }
      ],
      "name": "RoleRevoked",
      "type": "event"
    },
    {
      "anonymous": false,
      "inputs": [
        {
          "indexed": false,
          "internalType": "address",
          "name": "account",
          "type": "address"
        }
      ],
      "name": "Unpaused",
      "type": "event"
    },
    {
      "anonymous": false,
      "inputs": [
        {
          "indexed": false,
          "internalType": "address",
          "name": "investor",
          "type": "address"
        },
        {
          "indexed": false,
          "internalType": "uint256",
          "name": "amount",
          "type": "uint256"
        },
        {
          "indexed": false,
          "internalType": "uint256",
          "name": "timestamp",
          "type": "uint256"
        }
      ],
      "name": "WithdrawalMade",
      "type": "event"
    },
    {
      "inputs": [],
      "name": "DEFAULT_ADMIN_ROLE",
      "outputs": [
        {
          "internalType": "bytes32",
          "name": "",
          "type": "bytes32"
        }
      ],
      "stateMutability": "view",
      "type": "function"
    },
    {
      "inputs": [],
      "name": "WHALE_INVESTOR_THRESHOLD",
      "outputs": [
        {
          "internalType": "uint256",
          "name": "",
          "type": "uint256"
        }
      ],
      "stateMutability": "view",
      "type": "function"
    },
    {
      "inputs": [],
      "name": "bondDistribution",
      "outputs": [
        {
          "internalType": "contract BondDistribution",
          "name": "",
          "type": "address"
        }
      ],
      "stateMutability": "view",
      "type": "function"
    },
    {
      "inputs": [],
      "name": "bondPriceSet",
      "outputs": [
        {
          "internalType": "bool",
          "name": "",
          "type": "bool"
        }
      ],
      "stateMutability": "view",
      "type": "function"
    },
    {
      "inputs": [],
      "name": "getFundingPeriodLimit",
      "outputs": [
        {
          "internalType": "uint256",
          "name": "",
          "type": "uint256"
        }
      ],
      "stateMutability": "view",
      "type": "function"
    },
    {
      "inputs": [],
      "name": "getInvestorAmount",
      "outputs": [
        {
          "internalType": "uint256",
          "name": "",
          "type": "uint256"
        }
      ],
      "stateMutability": "view",
      "type": "function"
    },
    {
      "inputs": [],
      "name": "getMinimumInvestmentAmount",
      "outputs": [
        {
          "internalType": "uint256",
          "name": "",
          "type": "uint256"
        }
      ],
      "stateMutability": "view",
      "type": "function"
    },
    {
      "inputs": [
        {
          "internalType": "bytes32",
          "name": "role",
          "type": "bytes32"
        }
      ],
      "name": "getRoleAdmin",
      "outputs": [
        {
          "internalType": "bytes32",
          "name": "",
          "type": "bytes32"
        }
      ],
      "stateMutability": "view",
      "type": "function"
    },
    {
      "inputs": [
        {
          "internalType": "bytes32",
          "name": "role",
          "type": "bytes32"
        },
        {
          "internalType": "address",
          "name": "account",
          "type": "address"
        }
      ],
      "name": "grantRole",
      "outputs": [],
      "stateMutability": "nonpayable",
      "type": "function"
    },
    {
      "inputs": [
        {
          "internalType": "bytes32",
          "name": "role",
          "type": "bytes32"
        },
        {
          "internalType": "address",
          "name": "account",
          "type": "address"
        }
      ],
      "name": "hasRole",
      "outputs": [
        {
          "internalType": "bool",
          "name": "",
          "type": "bool"
        }
      ],
      "stateMutability": "view",
      "type": "function"
    },
    {
      "inputs": [
        {
          "internalType": "uint256",
          "name": "daysToAddToFundingPeriodLimit_",
          "type": "uint256"
        }
      ],
      "name": "incrementFundingPeriodLimit",
      "outputs": [],
      "stateMutability": "nonpayable",
      "type": "function"
    },
    {
      "inputs": [
        {
          "internalType": "uint256",
          "name": "amountToInvest_",
          "type": "uint256"
        }
      ],
      "name": "invest",
      "outputs": [],
      "stateMutability": "nonpayable",
      "type": "function"
    },
    {
      "inputs": [
        {
          "internalType": "address",
          "name": "",
          "type": "address"
        }
      ],
      "name": "investedAmountPerInvestor",
      "outputs": [
        {
          "internalType": "uint256",
          "name": "investedAmount",
          "type": "uint256"
        },
        {
          "internalType": "uint256",
          "name": "investorIndex",
          "type": "uint256"
        }
      ],
      "stateMutability": "view",
      "type": "function"
    },
    {
      "inputs": [
        {
          "internalType": "uint256",
          "name": "index",
          "type": "uint256"
        }
      ],
      "name": "investors",
      "outputs": [
        {
          "internalType": "address",
          "name": "",
          "type": "address"
        }
      ],
      "stateMutability": "view",
      "type": "function"
    },
    {
      "inputs": [],
      "name": "ogNFT",
      "outputs": [
        {
          "internalType": "contract InvestorNFT",
          "name": "",
          "type": "address"
        }
      ],
      "stateMutability": "view",
      "type": "function"
    },
    {
      "inputs": [],
      "name": "pause",
      "outputs": [],
      "stateMutability": "nonpayable",
      "type": "function"
    },
    {
      "inputs": [],
      "name": "paused",
      "outputs": [
        {
          "internalType": "bool",
          "name": "",
          "type": "bool"
        }
      ],
      "stateMutability": "view",
      "type": "function"
    },
    {
      "inputs": [
        {
          "internalType": "uint256",
          "name": "amountOfInvestorsToRefund_",
          "type": "uint256"
        }
      ],
      "name": "refundInvestors",
      "outputs": [],
      "stateMutability": "nonpayable",
      "type": "function"
    },
    {
      "inputs": [
        {
          "internalType": "bytes32",
          "name": "role",
          "type": "bytes32"
        },
        {
          "internalType": "address",
          "name": "callerConfirmation",
          "type": "address"
        }
      ],
      "name": "renounceRole",
      "outputs": [],
      "stateMutability": "nonpayable",
      "type": "function"
    },
    {
      "inputs": [
        {
          "internalType": "bytes32",
          "name": "role",
          "type": "bytes32"
        },
        {
          "internalType": "address",
          "name": "account",
          "type": "address"
        }
      ],
      "name": "revokeRole",
      "outputs": [],
      "stateMutability": "nonpayable",
      "type": "function"
    },
    {
      "inputs": [
        {
          "internalType": "address",
          "name": "_bondDistribution",
          "type": "address"
        }
      ],
      "name": "setBondDistribution",
      "outputs": [],
      "stateMutability": "nonpayable",
      "type": "function"
    },
    {
      "inputs": [
        {
          "internalType": "uint256",
          "name": "_bondPrice",
          "type": "uint256"
        }
      ],
      "name": "setBondPriceAndInitiateMinting",
      "outputs": [],
      "stateMutability": "nonpayable",
      "type": "function"
    },
    {
      "inputs": [
        {
          "internalType": "uint256",
          "name": "minimumInvestmentAmount_",
          "type": "uint256"
        }
      ],
      "name": "setMinimumInvestmentAmount",
      "outputs": [],
      "stateMutability": "nonpayable",
      "type": "function"
    },
    {
      "inputs": [
        {
          "internalType": "address",
          "name": "ogNFTAddress_",
          "type": "address"
        }
      ],
      "name": "setOgNFTAddress",
      "outputs": [],
      "stateMutability": "nonpayable",
      "type": "function"
    },
    {
      "inputs": [
        {
          "internalType": "uint256",
          "name": "targetAmount_",
          "type": "uint256"
        }
      ],
      "name": "setTargetAmount",
      "outputs": [],
      "stateMutability": "nonpayable",
      "type": "function"
    },
    {
      "inputs": [
        {
          "internalType": "address",
          "name": "whaleNFTAddress_",
          "type": "address"
        }
      ],
      "name": "setWhaleNFTAddress",
      "outputs": [],
      "stateMutability": "nonpayable",
      "type": "function"
    },
    {
      "inputs": [
        {
          "internalType": "bytes4",
          "name": "interfaceId",
          "type": "bytes4"
        }
      ],
      "name": "supportsInterface",
      "outputs": [
        {
          "internalType": "bool",
          "name": "",
          "type": "bool"
        }
      ],
      "stateMutability": "view",
      "type": "function"
    },
    {
      "inputs": [],
      "name": "targetAmount",
      "outputs": [
        {
          "internalType": "uint256",
          "name": "",
          "type": "uint256"
        }
      ],
      "stateMutability": "view",
      "type": "function"
    },
    {
      "inputs": [],
      "name": "unpause",
      "outputs": [],
      "stateMutability": "nonpayable",
      "type": "function"
    },
    {
      "inputs": [],
      "name": "usdcToken",
      "outputs": [
        {
          "internalType": "contract IERC20",
          "name": "",
          "type": "address"
        }
      ],
      "stateMutability": "view",
      "type": "function"
    },
    {
      "inputs": [],
      "name": "whaleNFT",
      "outputs": [
        {
          "internalType": "contract InvestorNFT",
          "name": "",
          "type": "address"
        }
      ],
      "stateMutability": "view",
      "type": "function"
    },
    {
      "inputs": [],
      "name": "withdraw",
      "outputs": [],
      "stateMutability": "nonpayable",
      "type": "function"
    }
  ],
  "bytecode": "0x60a06040523480156200001157600080fd5b5060405162001d2238038062001d228339810160408190526200003491620001cb565b6001805460ff1916815560025560008490036200006457604051630289423360e11b815260040160405180910390fd5b8260000362000086576040516358f90cb360e11b815260040160405180910390fd5b81600003620000a85760405163058dad3d60e51b815260040160405180910390fd5b6001600160a01b038116620000d0576040516365400b5960e01b815260040160405180910390fd5b620000dd6000336200011c565b5060058490556006839055620000f7826201518062000232565b6200010390426200024c565b6007556001600160a01b03166080525062000262915050565b6000828152602081815260408083206001600160a01b038516845290915281205460ff16620001c1576000838152602081815260408083206001600160a01b03861684529091529020805460ff19166001179055620001783390565b6001600160a01b0316826001600160a01b0316847f2f8788117e7eff1d82e926ec794901d17c78024a50270940304540a733656f0d60405160405180910390a4506001620001c5565b5060005b92915050565b60008060008060808587031215620001e257600080fd5b845160208601516040870151606088015192965090945092506001600160a01b03811681146200021157600080fd5b939692955090935050565b634e487b7160e01b600052601160045260246000fd5b8082028115828204841417620001c557620001c56200021c565b80820180821115620001c557620001c56200021c565b608051611a6c620002b660003960008181610237015281816105b4015281816106ad01528181610824015281816109f301528181610b2401528181610ef3015281816110b701526115b30152611a6c6000f3fe608060405234801561001057600080fd5b50600436106101f05760003560e01c80635c975abb1161010f5780639bafe6c0116100a2578063b5aa3b7511610071578063b5aa3b7514610435578063d547741f1461043d578063e505b0c714610450578063ead6d69e1461046357600080fd5b80639bafe6c0146103ff5780639ee987b214610407578063a217fddf1461041a578063a34f5cd81461042257600080fd5b80638766fbb1116100de5780638766fbb11461039b57806389c6a42c146103d757806391d14854146103e3578063953b8fb8146103f657600080fd5b80635c975abb1461036257806376ac85a81461036d578063803100c8146103805780638456cb591461039357600080fd5b80632f2ff15d116101875780633feb5f2b116101565780633feb5f2b146103155780634539a7e1146103285780634d55ed9b1461033b57806353ce46261461034e57600080fd5b80632f2ff15d146102df57806336568abe146102f25780633ccfd60b146103055780633f4ba83a1461030d57600080fd5b806317b1090b116101c357806317b1090b1461028457806322b3b1ad14610297578063248a9ca3146102a95780632afcf480146102cc57600080fd5b806301ffc9a7146101f55780630930618b1461021d57806311eac855146102325780631553c74014610271575b600080fd5b610208610203366004611852565b610476565b60405190151581526020015b60405180910390f35b61023061022b366004611883565b6104ad565b005b6102597f000000000000000000000000000000000000000000000000000000000000000081565b6040516001600160a01b039091168152602001610214565b600454610259906001600160a01b031681565b600354610259906001600160a01b031681565b6007545b604051908152602001610214565b61029b6102b7366004611883565b60009081526020819052604090206001015490565b6102306102da366004611883565b610533565b6102306102ed3660046118b8565b610929565b6102306103003660046118b8565b61094e565b610230610986565b610230610c20565b610259610323366004611883565b610c36565b610230610336366004611883565b610c66565b610230610349366004611883565b610cc2565b600a5461020890600160a01b900460ff1681565b60015460ff16610208565b61023061037b3660046118e4565b610d1f565b61023061038e3660046118e4565b610d74565b610230610dc9565b6103c26103a93660046118e4565b6009602052600090815260409020805460019091015482565b60408051928352602083019190915201610214565b61029b64012a05f20081565b6102086103f13660046118b8565b610ddc565b61029b60065481565b60085461029b565b610230610415366004611883565b610e05565b61029b600081565b6102306104303660046118e4565b610fee565b60055461029b565b61023061044b3660046118b8565b61101c565b61023061045e366004611883565b611041565b600a54610259906001600160a01b031681565b60006001600160e01b03198216637965db0b60e01b14806104a757506301ffc9a760e01b6001600160e01b03198316145b92915050565b60006104b88161129a565b600a54600160a01b900460ff16156104eb5760405162461bcd60e51b81526004016104e2906118ff565b60405180910390fd5b8160000361050c5760405163058dad3d60e51b815260040160405180910390fd5b6105198262015180611965565b6007600082825461052a919061197c565b90915550505050565b60035481906001600160a01b0316158061055657506004546001600160a01b0316155b1561057457604051631c868b4f60e01b815260040160405180910390fd5b426007541161059c576007546040516327bab4f360e01b81526004016104e291815260200190565b6040516370a0823160e01b81523060048201526000907f00000000000000000000000000000000000000000000000000000000000000006001600160a01b0316906370a0823190602401602060405180830381865afa158015610603573d6000803e3d6000fd5b505050506040513d601f19601f82011682018060405250810190610627919061198f565b600654909150610637838361197c565b1115610664576006546040516337427f7d60e11b81526104e2918391600401918252602082015260400190565b60055482101561069557600554604051631ead47ff60e01b81526104e2918491600401918252602082015260400190565b6040516370a0823160e01b81523360048201526000907f00000000000000000000000000000000000000000000000000000000000000006001600160a01b0316906370a0823190602401602060405180830381865afa1580156106fc573d6000803e3d6000fd5b505050506040513d601f19601f82011682018060405250810190610720919061198f565b90508281101561074d57604051630b39833f60e41b815260048101829052602481018490526044016104e2565b6107556112a4565b61075d6112cc565b33600090815260096020526040812080549091036107d357600880546001818101835560008390527ff3f7a9fe364faab93b216da50a3214154f22a0a2b415b23a84c8169e8b636ee390910180546001600160a01b0319163317905590546107c591906119a8565b60018201556107d3336112f2565b848160000160008282546107e7919061197c565b9091555050805464012a05f2001161080257610802336113ce565b6040516323b872dd60e01b8152336004820152306024820152604481018690527f00000000000000000000000000000000000000000000000000000000000000006001600160a01b0316906323b872dd906064016020604051808303816000875af1158015610875573d6000803e3d6000fd5b505050506040513d601f19601f8201168201806040525081019061089991906119bb565b6108d95760405162461bcd60e51b8152602060048201526011602482015270125b9d995cdd1b595b9d0819985a5b1959607a1b60448201526064016104e2565b6040805133815260208101879052428183015290517f0a9bd546b0677820e552855be50bea4847cd782448e9f00d2543ceb3b91c2c5b9181900360600190a1506109236001600255565b50505050565b6000828152602081905260409020600101546109448161129a565b6109238383611475565b6001600160a01b03811633146109775760405163334bd91960e11b815260040160405180910390fd5b6109818282611507565b505050565b61098e611572565b3360009081526009602090815260408083208151808301909252805480835260019091015492820192909252918190036109db576040516333be397f60e01b815260040160405180910390fd5b6040516370a0823160e01b81523060048201526000907f00000000000000000000000000000000000000000000000000000000000000006001600160a01b0316906370a0823190602401602060405180830381865afa158015610a42573d6000803e3d6000fd5b505050506040513d601f19601f82011682018060405250810190610a66919061198f565b905081811015610a9357604051630b39833f60e41b815260048101829052602481018390526044016104e2565b610a9b6112a4565b610aa36112cc565b33600090815260096020526040902080546001820154600880549091908110610ace57610ace6119dd565b6000918252602090912001546001600160a01b03163314610af157610af16119f3565b610afe8260010154611667565b6000808355600183015560405163a9059cbb60e01b8152336004820152602481018290527f00000000000000000000000000000000000000000000000000000000000000006001600160a01b03169063a9059cbb906044016020604051808303816000875af1158015610b75573d6000803e3d6000fd5b505050506040513d601f19601f82011682018060405250810190610b9991906119bb565b610bd55760405162461bcd60e51b815260206004820152600d60248201526c1499599d5b990819985a5b1959609a1b60448201526064016104e2565b6040805133815260208101839052428183015290517f2d4d49c3e017b8235c908cbaa83a2431a08f3b950712696ece2088964fd399f09181900360600190a150506109816001600255565b6000610c2b8161129a565b610c33611769565b50565b600060088281548110610c4b57610c4b6119dd565b6000918252602090912001546001600160a01b031692915050565b6000610c718161129a565b600a54600160a01b900460ff1615610c9b5760405162461bcd60e51b81526004016104e2906118ff565b81600003610cbc57604051630289423360e11b815260040160405180910390fd5b50600555565b6000610ccd8161129a565b600a54600160a01b900460ff1615610cf75760405162461bcd60e51b81526004016104e2906118ff565b6006548211610d19576040516332d58aff60e01b815260040160405180910390fd5b50600655565b6000610d2a8161129a565b6001600160a01b038216610d5157604051631c868b4f60e01b815260040160405180910390fd5b50600480546001600160a01b0319166001600160a01b0392909216919091179055565b6000610d7f8161129a565b6001600160a01b038216610da657604051631c868b4f60e01b815260040160405180910390fd5b50600380546001600160a01b0319166001600160a01b0392909216919091179055565b6000610dd48161129a565b610c336117bb565b6000918252602082815260408084206001600160a01b0393909316845291905290205460ff1690565b80610e0e611572565b80600003610e2f576040516342e0d85160e11b815260040160405180910390fd5b600854811115610e5257604051633d49b89f60e01b815260040160405180910390fd5b610e5a6112a4565b610e626112cc565b600080835b8015610fa5576008600081548110610e8157610e816119dd565b60009182526020808320909101546001600160a01b031680835260099091526040822080548382556001820184905591955090935090610ec090611667565b81610eca81611a09565b60405163a9059cbb60e01b81526001600160a01b038781166004830152602482018790529194507f0000000000000000000000000000000000000000000000000000000000000000909116915063a9059cbb906044016020604051808303816000875af1158015610f3f573d6000803e3d6000fd5b505050506040513d601f19601f82011682018060405250810190610f6391906119bb565b610f9f5760405162461bcd60e51b815260206004820152600d60248201526c1499599d5b990819985a5b1959609a1b60448201526064016104e2565b50610e67565b604080518681524260208201527f965f783d8e21d3e7ce50257c7e66a293fa0f50b296dad79a71d53a9bfb809069910160405180910390a1505050610fea6001600255565b5050565b6000610ff98161129a565b50600a80546001600160a01b0319166001600160a01b0392909216919091179055565b6000828152602081905260409020600101546110378161129a565b6109238383611507565b600061104c8161129a565b600a54600160a01b900460ff161561109f5760405162461bcd60e51b8152602060048201526016602482015275109bdb99081c1c9a58d948185b1c9958591e481cd95d60521b60448201526064016104e2565b6006546040516370a0823160e01b81523060048201527f00000000000000000000000000000000000000000000000000000000000000006001600160a01b0316906370a0823190602401602060405180830381865afa158015611106573d6000803e3d6000fd5b505050506040513d601f19601f8201168201806040525081019061112a919061198f565b10156111785760405162461bcd60e51b815260206004820152601960248201527f54617267657420616d6f756e74206e6f7420726561636865640000000000000060448201526064016104e2565b60075442106111c95760405162461bcd60e51b815260206004820152601860248201527f46756e64696e6720706572696f642068617320656e646564000000000000000060448201526064016104e2565b600a54604051627dc55960e51b8152600481018490526001600160a01b0390911690630fb8ab2090602401600060405180830381600087803b15801561120e57600080fd5b505af1158015611222573d6000803e3d6000fd5b5050600a805460ff60a01b198116600160a01b1790915560408051630f2887a560e11b815290516001600160a01b039092169350631e510f4a925060048082019260009290919082900301818387803b15801561127e57600080fd5b505af1158015611292573d6000803e3d6000fd5b505050505050565b610c3381336117f6565b60028054036112c657604051633ee5aeb560e01b815260040160405180910390fd5b60028055565b60015460ff16156112f05760405163d93c066560e01b815260040160405180910390fd5b565b600480546040516370a0823160e01b81526001600160a01b03848116938201939093529116906370a0823190602401602060405180830381865afa15801561133e573d6000803e3d6000fd5b505050506040513d601f19601f82011682018060405250810190611362919061198f565b600003610c3357600480546040516340d097c360e01b81526001600160a01b03848116938201939093529116906340d097c3906024015b600060405180830381600087803b1580156113b357600080fd5b505af11580156113c7573d6000803e3d6000fd5b5050505050565b6003546040516370a0823160e01b81526001600160a01b038381166004830152909116906370a0823190602401602060405180830381865afa158015611418573d6000803e3d6000fd5b505050506040513d601f19601f8201168201806040525081019061143c919061198f565b600003610c33576003546040516340d097c360e01b81526001600160a01b038381166004830152909116906340d097c390602401611399565b60006114818383610ddc565b6114ff576000838152602081815260408083206001600160a01b03861684529091529020805460ff191660011790556114b73390565b6001600160a01b0316826001600160a01b0316847f2f8788117e7eff1d82e926ec794901d17c78024a50270940304540a733656f0d60405160405180910390a45060016104a7565b5060006104a7565b60006115138383610ddc565b156114ff576000838152602081815260408083206001600160a01b0386168085529252808320805460ff1916905551339286917ff6391f5c32d9c69d2a47ea670b442974b53935d1edc7fd64eb21e047a839171b9190a45060016104a7565b60075442101561159b576007546040516309ec001360e11b81526004016104e291815260200190565b6006546040516370a0823160e01b81523060048201527f00000000000000000000000000000000000000000000000000000000000000006001600160a01b0316906370a0823190602401602060405180830381865afa158015611602573d6000803e3d6000fd5b505050506040513d601f19601f82011682018060405250810190611626919061198f565b1061164457604051631780354d60e21b815260040160405180910390fd5b6008546000036112f0576040516342e0d85160e11b815260040160405180910390fd5b600854600090611679906001906119a8565b905060006009600060088481548110611694576116946119dd565b60009182526020808320909101546001600160a01b031683528201929092526040019020600181018490556008805491925090839081106116d7576116d76119dd565b600091825260209091200154600880546001600160a01b039092169185908110611703576117036119dd565b9060005260206000200160006101000a8154816001600160a01b0302191690836001600160a01b03160217905550600880548061174257611742611a20565b600082815260209020810160001990810180546001600160a01b0319169055019055505050565b61177161182f565b6001805460ff191690557f5db9ee0a495bf2e6ff9c91a7834c1ba4fdd244a5e8aa4e537bd38aeae4b073aa335b6040516001600160a01b03909116815260200160405180910390a1565b6117c36112cc565b6001805460ff1916811790557f62e78cea01bee320cd4e420270b5ea74000d11b0c9f74754ebdbfc544b05a2583361179e565b6118008282610ddc565b610fea5760405163e2517d3f60e01b81526001600160a01b0382166004820152602481018390526044016104e2565b60015460ff166112f057604051638dfc202b60e01b815260040160405180910390fd5b60006020828403121561186457600080fd5b81356001600160e01b03198116811461187c57600080fd5b9392505050565b60006020828403121561189557600080fd5b5035919050565b80356001600160a01b03811681146118b357600080fd5b919050565b600080604083850312156118cb57600080fd5b823591506118db6020840161189c565b90509250929050565b6000602082840312156118f657600080fd5b61187c8261189c565b60208082526030908201527f426f6e6420707269636520616c7265616479207365742c2063616e6e6f74206d60408201526f6f6469667920706172616d657465727360801b606082015260800190565b634e487b7160e01b600052601160045260246000fd5b80820281158282048414176104a7576104a761194f565b808201808211156104a7576104a761194f565b6000602082840312156119a157600080fd5b5051919050565b818103818111156104a7576104a761194f565b6000602082840312156119cd57600080fd5b8151801515811461187c57600080fd5b634e487b7160e01b600052603260045260246000fd5b634e487b7160e01b600052600160045260246000fd5b600081611a1857611a1861194f565b506000190190565b634e487b7160e01b600052603160045260246000fdfea2646970667358221220a6454de2d10ac84bc268bdb5fc2e81e9fe663f9e906cc9ce4cb39fa5e6f82a3664736f6c63430008180033",
  "linkReferences": {},
  "deployedLinkReferences": {}
}